2025-07-17 14:00:00.205658 IP 203.50.232.44 > 186.182.9.172: ICMP echo request, id 41186, seq 4689, length 12
	0x0000:  04a5 262e ee88 100e 7ecb 53f0 0800 4500  ..&.....~.S...E.
	0x0010:  0020 a878 4000 3f01 1ba3 cb32 e82c bab6  ...x@.?....2.,..
	0x0020:  09ac 0800 4011 a0e2 1251                 ....@....Q
2025-07-17 14:00:00.205660 IP 18.164.136.189.443 > 202.133.239.174.57896: Flags [.], seq 497824319:497828429, ack 3806702252, win 137, options [nop,nop,TS val 51009075 ecr 4217313027], length 4110
	0x0000:  f07c c711 7054 70e4 2243 978b 0800 4500  .|..pTp."C....E.
	0x0010:  1042 f013 0000 fb06 6a0c 12a4 88bd ca85  .B......j.......
	0x0020:  efae 01bb e228 1dac 323f e2e5 aaac 8010  .....(..2?......
	0x0030:  0089 bb16 0000 0101 080a 030a 5633 fb5f  ............V3._
	0x0040:  1703                                     ..
2025-07-17 14:00:00.205661 IP 126.94.219.4.64559 > 203.50.251.65.80: Flags [.], ack 2753944133, win 482, options [nop,nop,TS val 1300889575 ecr 1275969717], length 0
	0x0000:  f07c c711 7054 70e4 2243 978b 0800 4500  .|..pTp."C....E.
	0x0010:  0034 cc57 4000 3506 5995 7e5e db04 cb32  .4.W@.5.Y.~^...2
	0x0020:  fb41 fc2f 0050 f946 7fca a425 da45 8010  .A./.P.F...%.E..
	0x0030:  01e2 06d3 0000 0101 080a 4d89 ffe7 4c0d  ..........M...L.
	0x0040:  c0b5                                     ..
2025-07-17 14:00:00.205662 IP 52.64.118.67.443 > 202.133.239.170.53365: Flags [S.], seq 3115187405, ack 3500508439, win 26847, options [mss 1460,sackOK,TS val 2110307753 ecr 2859949026,nop,wscale 8], length 0
	0x0000:  f07c c711 7054 70e4 2243 978b 0800 4500  .|..pTp."C....E.
	0x0010:  003c 0000 4000 fa06 1c08 3440 7643 ca85  .<..@.....4@vC..
	0x0020:  efaa 01bb d075 b9ad fccd d0a5 8517 a012  .....u..........
	0x0030:  68df 5a26 0000 0204 05b4 0402 080a 7dc8  h.Z&..........}.
	0x0040:  bda9 aa77 5be2 0103 0308                 ...w[.....
2025-07-17 14:00:00.205669 IP 203.50.232.44 > 70.17.119.166: ICMP echo request, id 36834, seq 4486, length 12
	0x0000:  04a5 262e ee88 100e 7ecb 53f0 0800 4500  ..&.....~.S...E.
	0x0010:  0020 45eb 4000 3f01 84db cb32 e82c 4611  ..E.@.?....2.,F.
	0x0020:  77a6 0800 ed82 8fe2 1186                 w.........
2025-07-17 14:00:00.205669 IP 203.50.248.175.53086 > 13.156.113.111.443: Flags [.], ack 3520590327, win 8191, options [nop,nop,sack 4 {568751:586251}{487501:537501}{541251:563751}{8751:252501}], length 0
	0x0000:  04a5 262e ee88 100e 7ecb 53f0 0800 4500  ..&.....~.S...E.
	0x0010:  004c 7aff 4000 7b06 41bf cb32 f8af 0d9c  .Lz.@.{.A..2....
	0x0020:  716f cf5e 01bb ad0d 26d7 d1d7 f1f7 e010  qo.^....&.......
	0x0030:  1fff 1294 0000 0101 0522 d1e0 9fa5 d1e0  ........."......
	0x0040:  e401 d1df 6243 d1e0 2593 d1e0 3439 d1e0  ....bC..%...49..
	0x0050:  8c1d d1d8 1425 d1db cc4b                 .....%...K
2025-07-17 14:00:00.205672 IP 203.50.232.44 > 66.138.245.70: ICMP echo request, id 36834, seq 4486, length 12
	0x0000:  04a5 262e ee88 100e 7ecb 53f0 0800 4500  ..&.....~.S...E.
	0x0010:  0020 35a2 4000 3f01 1b0b cb32 e82c 428a  ..5.@.?....2.,B.
	0x0020:  f546 0800 ec82 8fe2 1186                 .F........
2025-07-17 14:00:00.205674 IP 142.4.219.234.443 > 131.140.1.9.54999: Flags [.], seq 2296275794:2296278594, ack 30033289, win 1047, options [nop,nop,TS val 892785122 ecr 3196506206], length 2800
	0x0000:  100e 7ecb 53f0 6c62 fed1 c33c 0800 4500  ..~.S.lb...<..E.
	0x0010:  0b24 b285 0000 7e06 90ca 8e04 dbea 838c  .$....~.........
	0x0020:  0109 01bb d6d7 88de 6352 01ca 4589 8010  ........cR..E...
	0x0030:  0417 93fc 0000 0101 080a 3536 d1e2 be86  ..........56....
	0x0040:  d05e                                     .^
2025-07-17 14:00:00.205676 IP 203.50.232.44 > 101.34.34.187: ICMP echo request, id 39906, seq 4681, length 12
	0x0000:  04a5 262e ee88 100e 7ecb 53f0 0800 4500  ..&.....~.S...E.
	0x0010:  0020 9032 4000 3f01 706e cb32 e82c 6522  ...2@.?.pn.2.,e"
	0x0020:  22bb 0800 b5e4 9be2 1249                 "........I
2025-07-17 14:00:00.205677 IP 203.50.232.44 > 122.220.39.77: ICMP echo request, id 39906, seq 4681, length 12
	0x0000:  cee1 94a2 2306 100e 7ecb 53f0 0800 4500  ....#...~.S...E.
	0x0010:  0020 8d85 4000 3f01 58cf cb32 e82c 7adc  ....@.?.X..2.,z.
	0x0020:  274d 0800 b3e4 9be2 1249                 'M.......I
2025-07-17 14:00:00.205683 IP 150.95.24.186.42395 > 52.158.85.229.443: UDP, length 38
	0x0000:  6c6c d367 9a69 100e 7ecb 53f0 0800 4500  ll.g.i..~.S...E.
	0x0010:  0042 3b68 4000 7a11 8ba6 965f 18ba 349e  .B;h@.z...._..4.
	0x0020:  55e5 a59b 01bb 002e 410f 5c46 3462 55e2  U.......A.\F4bU.
	0x0030:  da33 8b72 194a 3ddd f6d1 b276 6011 a1fd  .3.r.J=....v`...
	0x0040:  bba1 becb a237 3bfd 6029 e908 5d99 8f71  .....7;.`)..]..q
2025-07-17 14:00:00.205685 IP 203.50.232.44 > 154.71.137.80: ICMP echo request, id 36834, seq 4486, length 12
	0x0000:  04a5 262e ee88 100e 7ecb 53f0 0800 4500  ..&.....~.S...E.
	0x0010:  0020 f852 4000 3f01 6c93 cb32 e82c 9a47  ...R@.?.l..2.,.G
	0x0020:  8950 0800 ea82 8fe2 1186                 .P........
2025-07-17 14:00:00.205691 IP 104.34.60.131.443 > 150.95.55.78.41690: Flags [P.], seq 4275472228:4275472263, ack 4266976393, win 16, options [nop,nop,TS val 166290445 ecr 3182131556], length 35
	0x0000:  100e 7ecb 53f0 7c25 8655 aae2 0800 4588  ..~.S.|%.U....E.
	0x0010:  0057 7a23 4000 3e06 4fa3 6822 3c83 965f  .Wz#@.>.O.h"<.._
	0x0020:  374e 01bb a2da fed6 8764 fe54 e489 8018  7N.......d.T....
	0x0030:  0010 a526 0000 0101 080a 09e9 640d bdab  ...&........d...
	0x0040:  7964                                     yd
2025-07-17 14:00:00.205692 IP 203.50.232.44 > 77.211.53.185: ICMP echo request, id 39906, seq 4681, length 12
	0x0000:  04a5 262e ee88 100e 7ecb 53f0 0800 4500  ..&.....~.S...E.
	0x0010:  0020 8196 4000 3f01 835b cb32 e82c 4dd3  ....@.?..[.2.,M.
	0x0020:  35b9 0800 b4e4 9be2 1249                 5........I
2025-07-17 14:00:00.205694 IP 89.115.27.173.32063 > 192.253.213.1.53: 25059% [1au][|domain]
	0x0000:  f07c c711 7054 70e4 2243 978b 0800 4500  .|..pTp."C....E.
	0x0010:  0048 ad0b 0000 3811 ca7a 5973 1bad c0fd  .H....8..zYs....
	0x0020:  d501 7d3f 0035 0034 adf8 61e3 0010 0001  ..}?.5.4..a.....
	0x0030:  0000 0000 0001                           ......
2025-07-17 14:00:00.205699 IP 212.20.145.91.20149 > 150.95.255.30.23: Flags [S], seq 2520858142, win 18365, length 0
	0x0000:  100e 7ecb 53f0 4088 2fbc 62e0 0800 4500  ..~.S.@./.b...E.
	0x0010:  0028 7d30 0000 3906 09b2 d414 915b 965f  .(}0..9......[._
	0x0020:  ff1e 4eb5 0017 9641 3e1e 0000 0000 5002  ..N....A>.....P.
	0x0030:  47bd 4a0b 0000                           G.J...
2025-07-17 14:00:00.205701 IP 62.83.147.169 > 203.50.232.44: ICMP echo reply, id 39906, seq 4462, length 12
	0x0000:  100e 7ecb 53f0 04a5 262e ee88 0800 4500  ..~.S...&.....E.
	0x0010:  0020 47f1 0000 3001 bd90 3e53 93a9 cb32  ..G...0...>S...2
	0x0020:  e82c 0000 24c5 9be2 116e                 .,..$....n
2025-07-17 14:00:00.205704 IP 202.138.58.66.51820 > 113.43.203.232.57768: UDP, length 1360
	0x0000:  6c6c d367 9a69 100e 7ecb 53f0 0800 4502  ll.g.i..~.S...E.
	0x0010:  056c 422a 0000 3e11 f374 ca8a 3a42 712b  .lB*..>..t..:Bq+
	0x0020:  cbe8 ca6c e1a8 0558 1886                 ...l...X..
2025-07-17 14:00:00.205706 IP 202.138.58.66.51820 > 113.43.203.232.57768: UDP, length 144
	0x0000:  6c6c d367 9a69 100e 7ecb 53f0 0800 4502  ll.g.i..~.S...E.
	0x0010:  00ac 422b 0000 3e11 f833 ca8a 3a42 712b  ..B+..>..3..:Bq+
	0x0020:  cbe8 ca6c e1a8 0098 6ab4                 ...l....j.
2025-07-17 14:00:00.205709 IP 150.95.207.31 > 210.194.79.186: [|ESP]
	0x0000:  fcbd 67f5 4bdf 100e 7ecb 53f0 0800 4500  ..g.K...~.S...E.
	0x0010:  049c c237 0000 3c32 2ffd 965f cf1f d2c2  ...7..<2/.._....
	0x0020:  4fba                                     O.
2025-07-17 14:00:00.205724 IP6 2404:77e1:b074:7e58:1031:87f1:7003:5879.443 > 2001:f98a:a0f2:2ca3:4b8c:abd5:698b:e61.51706: Flags [P.], seq 2154209996:2154210122, ack 2592180533, win 1039, options [nop,nop,TS val 2037415612 ecr 4072871830], length 126
	0x0000:  100e 7ecb 53f0 6c62 fed1 c33c 86dd 600b  ..~.S.lb...<..`.
	0x0010:  cf55 009e 067e 2404 77e1 b074 7e58 1031  .U...~$.w..t~X.1
	0x0020:  87f1 7003 5879 2001 f98a a0f2 2ca3 4b8c  ..p.Xy......,.K.
	0x0030:  abd5 698b 0e61 01bb c9fa 8066 a2cc 9a81  ..i..a.....f....
	0x0040:  8935 8018 040f fca1 0000 0101 080a 7970  .5............yp
	0x0050:  7ebc f2c3 1796                           ~.....
2025-07-17 14:00:00.205726 IP 150.95.130.41.64621 > 184.28.7.180.443: Flags [.], ack 188468815, win 65535, options [nop,nop,TS val 2452678352 ecr 3062177311,nop,nop,sack 1 {1437:190989}], length 0
	0x0000:  9819 2cf3 fddc 100e 7ecb 53f0 0800 4500  ..,.....~.S...E.
	0x0010:  0040 0000 4000 3b06 675f 965f 8229 b81c  .@..@.;.g_._.)..
	0x0020:  07b4 fc6d 01bb ce34 d0c3 0b3b ce4f b010  ...m...4...;.O..
	0x0030:  ffff 013a 0000 0101 080a 9230 e6d0 b685  ...:.......0....
	0x0040:  1e1f 0101 050a 0b3b d3eb 0b3e b85b       .......;...>.[
2025-07-17 14:00:00.205729 IP 150.95.130.41.64621 > 184.28.7.180.443: Flags [.], ack 1, win 65535, options [nop,nop,TS val 2452678352 ecr 3062177311,nop,nop,sack 1 {1437:193861}], length 0
	0x0000:  9819 2cf3 fddc 100e 7ecb 53f0 0800 4500  ..,.....~.S...E.
	0x0010:  0040 0000 4000 3b06 675f 965f 8229 b81c  .@..@.;.g_._.)..
	0x0020:  07b4 fc6d 01bb ce34 d0c3 0b3b ce4f b010  ...m...4...;.O..
	0x0030:  ffff f601 0000 0101 080a 9230 e6d0 b685  ...........0....
	0x0040:  1e1f 0101 050a 0b3b d3eb 0b3e c393       .......;...>..
2025-07-17 14:00:00.205732 IP 203.50.248.175.53086 > 13.156.113.111.443: Flags [.], ack 1, win 8191, options [nop,nop,sack 4 {568751:587501}{487501:537501}{541251:563751}{8751:252501}], length 0
	0x0000:  04a5 262e ee88 100e 7ecb 53f0 0800 4500  ..&.....~.S...E.
	0x0010:  004c 7b00 4000 7b06 41be cb32 f8af 0d9c  .L{.@.{.A..2....
	0x0020:  716f cf5e 01bb ad0d 26d7 d1d7 f1f7 e010  qo.^....&.......
	0x0030:  1fff 0db2 0000 0101 0522 d1e0 9fa5 d1e0  ........."......
	0x0040:  e8e3 d1df 6243 d1e0 2593 d1e0 3439 d1e0  ....bC..%...49..
	0x0050:  8c1d d1d8 1425 d1db cc4b                 .....%...K
2025-07-17 14:00:00.205733 IP 23.184.122.197.443 > 150.95.130.39.64080: Flags [.], seq 4263071449:4263078749, ack 3383597278, win 2847, length 7300
	0x0000:  100e 7ecb 53f0 d077 cea5 26d7 0800 4500  ..~.S..w..&...E.
	0x0010:  1cac 5115 4000 3b06 2733 17b8 7ac5 965f  ..Q.@.;.'3..z.._
	0x0020:  8227 01bb fa50 fe19 4ed9 c9ad 98de 5010  .'...P..N.....P.
	0x0030:  0b1f aec6 0000                           ......
2025-07-17 14:00:00.205734 IP 150.95.130.41.64621 > 184.28.7.180.443: Flags [.], ack 1, win 65535, options [nop,nop,TS val 2452678353 ecr 3062177311,nop,nop,sack 1 {1437:195297}], length 0
	0x0000:  9819 2cf3 fddc 100e 7ecb 53f0 0800 4500  ..,.....~.S...E.
	0x0010:  0040 0000 4000 3b06 675f 965f 8229 b81c  .@..@.;.g_._.)..
	0x0020:  07b4 fc6d 01bb ce34 d0c3 0b3b ce4f b010  ...m...4...;.O..
	0x0030:  ffff f064 0000 0101 080a 9230 e6d1 b685  ...d.......0....
	0x0040:  1e1f 0101 050a 0b3b d3eb 0b3e c92f       .......;...>./
2025-07-17 14:00:00.205740 IP 83.161.101.242.56391 > 163.61.240.45.13659: Flags [S], seq 150118520, win 1024, length 0
	0x0000:  100e 7ecb 53f0 04a5 262e ee88 0800 4500  ..~.S...&.....E.
	0x0010:  0028 653f 0000 f306 1592 53a1 65f2 a33d  .(e?......S.e..=
	0x0020:  f02d dc47 355b 08f2 a078 0000 0000 5002  .-.G5[...x....P.
	0x0030:  0400 a3d6 0000                           ......
2025-07-17 14:00:00.205743 IP 71.234.18.99.443 > 133.20.111.142.28349: Flags [.], seq 1776490180:1776495540, ack 3574690889, win 104, options [nop,nop,TS val 2010813573 ecr 734055892], length 5360
	0x0000:  f07c c711 7054 70e4 2243 978b 0800 4500  .|..pTp."C....E.
	0x0010:  1524 18dc 4000 3506 c908 47ea 1263 8514  .$..@.5...G..c..
	0x0020:  6f8e 01bb 6ebd 69e3 16c4 d511 7449 8010  o...n.i.....tI..
	0x0030:  0068 ce32 0000 0101 080a 77da 9485 2bc0  .h.2......w...+.
	0x0040:  cdd4                                     ..
2025-07-17 14:00:00.205746 IP 71.234.18.99.443 > 133.20.111.142.28349: Flags [P.], seq 5360:6700, ack 1, win 104, options [nop,nop,TS val 2010813573 ecr 734055892], length 1340
	0x0000:  f07c c711 7054 70e4 2243 978b 0800 4500  .|..pTp."C....E.
	0x0010:  0570 18e0 4000 3506 d8b8 47ea 1263 8514  .p..@.5...G..c..
	0x0020:  6f8e 01bb 6ebd 69e3 2bb4 d511 7449 8018  o...n.i.+...tI..
	0x0030:  0068 6a9e 0000 0101 080a 77da 9485 2bc0  .hj.......w...+.
	0x0040:  cdd4                                     ..
2025-07-17 14:00:00.205753 IP 172.187.98.95.443 > 202.133.239.166.62571: Flags [P.], seq 1676306151:1676306630, ack 2043675224, win 22, length 479
	0x0000:  100e 7ecb 53f0 f4bf a88b 7a24 0800 4588  ..~.S.....z$..E.
	0x0010:  0207 dd6c 4000 3e06 93b5 acbb 625f ca85  ...l@.>.....b_..
	0x0020:  efa6 01bb f46b 63ea 66e7 79d0 0258 5018  .....kc.f.y..XP.
	0x0030:  0016 7631 0000                           ..v1..
2025-07-17 14:00:00.205755 IP 203.50.232.44 > 190.48.41.122: ICMP echo request, id 38370, seq 360, length 12
	0x0000:  04a5 262e ee88 100e 7ecb 53f0 0800 4500  ..&.....~.S...E.
	0x0010:  0020 0e7b 4000 3f01 9258 cb32 e82c be30  ...{@.?..X.2.,.0
	0x0020:  297a 0800 20d2 95e2 0168                 )z.......h
2025-07-17 14:00:00.205758 IP 163.61.119.80.55272 > 170.134.248.50.8801: UDP, length 1254
	0x0000:  7c25 8655 aae2 100e 7ecb 53f0 0800 4500  |%.U....~.S...E.
	0x0010:  0502 34cf 0000 3b11 88d5 a33d 7750 aa86  ..4...;....=wP..
	0x0020:  f832 d7e8 2261 04ee 721d                 .2.."a..r.
2025-07-17 14:00:00.205760 IP 203.50.232.44 > 89.201.210.69: ICMP echo request, id 39906, seq 4681, length 12
	0x0000:  6c6c d367 9a69 100e 7ecb 53f0 0800 4500  ll.g.i..~.S...E.
	0x0010:  0020 353c 4000 3f01 2733 cb32 e82c 59c9  ..5<@.?.'3.2.,Y.
	0x0020:  d245 0800 b1e4 9be2 1249                 .E.......I
2025-07-17 14:00:00.205762 IP 203.50.232.44 > 24.48.100.85: ICMP echo request, id 39906, seq 1872, length 12
	0x0000:  4088 2fbc 62e0 100e 7ecb 53f0 0800 4500  @./.b...~.S...E.
	0x0010:  0020 0fb2 4000 3f01 fc46 cb32 e82c 1830  ....@.?..F.2.,.0
	0x0020:  6455 0800 bddd 9be2 0750                 dU.......P
2025-07-17 14:00:00.205765 IP 163.61.119.80.55272 > 170.134.248.50.8801: UDP, length 1253
	0x0000:  7c25 8655 aae2 100e 7ecb 53f0 0800 4500  |%.U....~.S...E.
	0x0010:  0501 9c77 0000 3b11 212e a33d 7750 aa86  ...w..;.!..=wP..
	0x0020:  f832 d7e8 2261 04ed 7bfb                 .2.."a..{.
2025-07-17 14:00:00.205785 IP 172.187.98.95.443 > 202.133.239.166.62571: Flags [P.], seq 479:510, ack 1, win 22, length 31
	0x0000:  100e 7ecb 53f0 f4bf a88b 7a24 0800 4588  ..~.S.....z$..E.
	0x0010:  0047 dd6d 4000 3e06 9574 acbb 625f ca85  .G.m@.>..t..b_..
	0x0020:  efa6 01bb f46b 63ea 68c6 79d0 0258 5018  .....kc.h.y..XP.
	0x0030:  0016 8c1a 0000                           ......
2025-07-17 14:00:00.205791 IP 203.50.232.44 > 68.101.108.165: ICMP echo request, id 39906, seq 3387, length 12
	0x0000:  04a5 262e ee88 100e 7ecb 53f0 0800 4500  ..&.....~.S...E.
	0x0010:  0020 de9e 4000 3f01 f8d4 cb32 e82c 4465  ....@.?....2.,De
	0x0020:  6ca5 0800 b5f2 9be2 0d3b                 l........;
2025-07-17 14:00:00.205793 IP 126.43.223.197.31845 > 192.47.47.62.53: 36611% [1au][|domain]
	0x0000:  f07c c711 7054 70e4 2243 978b 0800 4500  .|..pTp."C....E.
	0x0010:  0062 8d31 4000 f811 a7fa 7e2b dfc5 c02f  .b.1@.....~+.../
	0x0020:  2f3e 7c65 0035 004e 655a 8f03 0010 0001  />|e.5.NeZ......
	0x0030:  0000 0000 0001                           ......
2025-07-17 14:00:00.205794 IP 203.50.232.44 > 59.118.119.186: ICMP echo request, id 38370, seq 975, length 12
	0x0000:  04a5 262e ee88 100e 7ecb 53f0 0800 4500  ..&.....~.S...E.
	0x0010:  0020 1dcf 4000 3f01 b77e cb32 e82c 3b76  ....@.?..~.2.,;v
	0x0020:  77ba 0800 1d6b 95e2 03cf                 w....k....
2025-07-17 14:00:00.205795 IP 52.134.77.215.3479 > 202.133.239.166.50015: UDP, length 123
	0x0000:  f07c c711 7054 70e4 2243 978b 0800 4500  .|..pTp."C....E.
	0x0010:  0097 ae1f 0000 7711 58ad 3486 4dd7 ca85  ......w.X.4.M...
	0x0020:  efa6 0d97 c35f 0083 9707                 ....._....
2025-07-17 14:00:00.205797 IP 203.50.232.44 > 221.51.194.31: ICMP echo request, id 38370, seq 3464, length 12
	0x0000:  04a5 262e ee88 100e 7ecb 53f0 0800 4500  ..&.....~.S...E.
	0x0010:  0020 33ee 4000 3f01 b53c cb32 e82c dd33  ..3.@.?..<.2.,.3
	0x0020:  c21f 0800 12b2 95e2 0d88                 ..........
2025-07-17 14:00:00.205798 IP 52.134.77.215.3479 > 202.133.239.166.50015: UDP, length 72
	0x0000:  f07c c711 7054 70e4 2243 978b 0800 4500  .|..pTp."C....E.
	0x0010:  0064 ae20 0000 7711 58df 3486 4dd7 ca85  .d....w.X.4.M...
	0x0020:  efa6 0d97 c35f 0050 7fc3                 ....._.P..
2025-07-17 14:00:00.205803 IP 43.144.17.13.80 > 202.133.239.166.58914: Flags [.], seq 362151156:362151157, ack 1608513924, win 512, length 1: HTTP
	0x0000:  100e 7ecb 53f0 8403 28dc e057 0800 4500  ..~.S...(..W..E.
	0x0010:  0029 2c0b 4000 3d06 1afb 2b90 110d ca85  .),.@.=...+.....
	0x0020:  efa6 0050 e622 1595 fcf4 5fdf f984 5010  ...P."...._...P.
	0x0030:  0200 32a9 0000                           ..2...
2025-07-17 14:00:00.205804 IP 13.156.113.111.443 > 203.50.248.175.53086: Flags [.], seq 252501:255001, ack 0, win 133, length 2500
	0x0000:  f07c c711 7054 70e4 2243 978b 0800 4500  .|..pTp."C....E.
	0x0010:  09ec ae42 0000 fb06 c4db 0d9c 716f cb32  ...B........qo.2
	0x0020:  f8af 01bb cf5e d1db cc4b ad0d 26d7 5010  .....^...K..&.P.
	0x0030:  0085 dd09 0000                           ......
2025-07-17 14:00:00.205807 IP 52.134.77.215.3479 > 202.133.239.170.50007: UDP, length 72
	0x0000:  f07c c711 7054 70e4 2243 978b 0800 4500  .|..pTp."C....E.
	0x0010:  0064 ff6a 0000 7711 0791 3486 4dd7 ca85  .d.j..w...4.M...
	0x0020:  efaa 0d97 c357 0050 323e                 .....W.P2>
2025-07-17 14:00:00.205812 IP 52.134.77.215.3479 > 202.133.239.170.50007: UDP, length 123
	0x0000:  f07c c711 7054 70e4 2243 978b 0800 4500  .|..pTp."C....E.
	0x0010:  0097 ff69 0000 7711 075f 3486 4dd7 ca85  ...i..w.._4.M...
	0x0020:  efaa 0d97 c357 0083 f81b                 .....W....
2025-07-17 14:00:00.205816 IP 150.95.207.31 > 210.194.79.186: [|ESP]
	0x0000:  fcbd 67f5 4bdf 100e 7ecb 53f0 0800 4500  ..g.K...~.S...E.
	0x0010:  048c cd37 0000 3c32 250d 965f cf1f d2c2  ...7..<2%.._....
	0x0020:  4fba                                     O.
2025-07-17 14:00:00.205822 IP 101.102.160.211.443 > 133.20.103.139.31477: Flags [P.], seq 3002021421:3002021734, ack 3867617175, win 65535, length 313
	0x0000:  f07c c711 7054 70e4 2243 978b 0800 4500  .|..pTp."C....E.
	0x0010:  0161 0c8b 4000 fb06 7f32 6566 a0d3 8514  .a..@....2ef....
	0x0020:  678b 01bb 7af5 b2ef 362d e687 2797 5018  g...z...6-..'.P.
	0x0030:  ffff d7df 0000                           ......
2025-07-17 14:00:00.205823 IP 203.50.232.44 > 186.248.99.8: ICMP echo request, id 38370, seq 4458, length 12
	0x0000:  04a5 262e ee88 100e 7ecb 53f0 0800 4500  ..&.....~.S...E.
	0x0010:  0020 0de7 4000 3f01 5c96 cb32 e82c baf8  ....@.?.\..2.,..
	0x0020:  6308 0800 0dd0 95e2 116a                 c........j
2025-07-17 14:00:00.205825 IP 150.95.130.41.64621 > 184.28.7.180.443: Flags [.], ack 1, win 65535, options [nop,nop,TS val 2452678353 ecr 3062177311,nop,nop,sack 1 {1437:198169}], length 0
	0x0000:  9819 2cf3 fddc 100e 7ecb 53f0 0800 4500  ..,.....~.S...E.
	0x0010:  0040 0000 4000 3b06 675f 965f 8229 b81c  .@..@.;.g_._.)..
	0x0020:  07b4 fc6d 01bb ce34 d0c3 0b3b ce4f b010  ...m...4...;.O..
	0x0030:  ffff e52c 0000 0101 080a 9230 e6d1 b685  ...,.......0....
	0x0040:  1e1f 0101 050a 0b3b d3eb 0b3e d467       .......;...>.g
2025-07-17 14:00:00.205827 IP 52.134.77.215.3479 > 202.133.239.167.50007: UDP, length 72
	0x0000:  f07c c711 7054 70e4 2243 978b 0800 4500  .|..pTp."C....E.
	0x0010:  0064 a576 0000 7711 6188 3486 4dd7 ca85  .d.v..w.a.4.M...
	0x0020:  efa7 0d97 c357 0050 a24b                 .....W.P.K
2025-07-17 14:00:00.205828 IP 133.36.7.50.4501 > 175.93.28.46.57707: UDP, length 100
	0x0000:  04a5 262e ee88 100e 7ecb 53f0 0800 4500  ..&.....~.S...E.
	0x0010:  0080 1339 0000 3911 1653 8524 0732 af5d  ...9..9..S.$.2.]
	0x0020:  1c2e 1195 e16b 006c 0000                 .....k.l..
2025-07-17 14:00:00.205829 IP 150.95.130.41.64621 > 184.28.7.180.443: Flags [.], ack 1, win 65535, options [nop,nop,TS val 2452678354 ecr 3062177311,nop,nop,sack 1 {1437:201041}], length 0
	0x0000:  9819 2cf3 fddc 100e 7ecb 53f0 0800 4500  ..,.....~.S...E.
	0x0010:  0040 0000 4000 3b06 675f 965f 8229 b81c  .@..@.;.g_._.)..
	0x0020:  07b4 fc6d 01bb ce34 d0c3 0b3b ce4f b010  ...m...4...;.O..
	0x0030:  ffff d9f3 0000 0101 080a 9230 e6d2 b685  ...........0....
	0x0040:  1e1f 0101 050a 0b3b d3eb 0b3e df9f       .......;...>..
2025-07-17 14:00:00.205831 IP 150.95.130.41.64621 > 184.28.7.180.443: Flags [.], ack 1, win 65535, options [nop,nop,TS val 2452678354 ecr 3062177311,nop,nop,sack 1 {1437:203913}], length 0
	0x0000:  9819 2cf3 fddc 100e 7ecb 53f0 0800 4500  ..,.....~.S...E.
	0x0010:  0040 0000 4000 3b06 675f 965f 8229 b81c  .@..@.;.g_._.)..
	0x0020:  07b4 fc6d 01bb ce34 d0c3 0b3b ce4f b010  ...m...4...;.O..
	0x0030:  ffff cebb 0000 0101 080a 9230 e6d2 b685  ...........0....
	0x0040:  1e1f 0101 050a 0b3b d3eb 0b3e ead7       .......;...>..
2025-07-17 14:00:00.205860 IP 203.50.248.175.53086 > 13.156.113.111.443: Flags [.], ack 1, win 8191, options [nop,nop,sack 4 {568751:592501}{487501:537501}{541251:563751}{8751:252501}], length 0
	0x0000:  04a5 262e ee88 100e 7ecb 53f0 0800 4500  ..&.....~.S...E.
	0x0010:  004c 7b01 4000 7b06 41bd cb32 f8af 0d9c  .L{.@.{.A..2....
	0x0020:  716f cf5e 01bb ad0d 26d7 d1d7 f1f7 e010  qo.^....&.......
	0x0030:  1fff fa29 0000 0101 0522 d1e0 9fa5 d1e0  ...)....."......
	0x0040:  fc6b d1df 6243 d1e0 2593 d1e0 3439 d1e0  .k..bC..%...49..
	0x0050:  8c1d d1d8 1425 d1db cc4b                 .....%...K
2025-07-17 14:00:00.205861 IP 52.134.77.215.3479 > 202.133.239.166.50002: UDP, length 123
	0x0000:  f07c c711 7054 70e4 2243 978b 0800 4500  .|..pTp."C....E.
	0x0010:  0097 ae21 0000 7711 58ab 3486 4dd7 ca85  ...!..w.X.4.M...
	0x0020:  efa6 0d97 c352 0083 8703                 .....R....
2025-07-17 14:00:00.205862 IP 150.95.130.41.64621 > 184.28.7.180.443: Flags [.], ack 1, win 65535, options [nop,nop,TS val 2452678354 ecr 3062177311,nop,nop,sack 1 {1437:206785}], length 0
	0x0000:  9819 2cf3 fddc 100e 7ecb 53f0 0800 4500  ..,.....~.S...E.
	0x0010:  0040 0000 4000 3b06 675f 965f 8229 b81c  .@..@.;.g_._.)..
	0x0020:  07b4 fc6d 01bb ce34 d0c3 0b3b ce4f b010  ...m...4...;.O..
	0x0030:  ffff c383 0000 0101 080a 9230 e6d2 b685  ...........0....
	0x0040:  1e1f 0101 050a 0b3b d3eb 0b3e f60f       .......;...>..
2025-07-17 14:00:00.205863 IP 52.134.77.215.3479 > 202.133.239.167.50007: UDP, length 123
	0x0000:  f07c c711 7054 70e4 2243 978b 0800 4500  .|..pTp."C....E.
	0x0010:  0097 a577 0000 7711 6154 3486 4dd7 ca85  ...w..w.aT4.M...
	0x0020:  efa7 0d97 c357 0083 4d2b                 .....W..M+
2025-07-17 14:00:00.205864 IP 52.134.77.215.3479 > 202.133.239.166.50002: UDP, length 72
	0x0000:  f07c c711 7054 70e4 2243 978b 0800 4500  .|..pTp."C....E.
	0x0010:  0064 ae22 0000 7711 58dd 3486 4dd7 ca85  .d."..w.X.4.M...
	0x0020:  efa6 0d97 c352 0050 cc16                 .....R.P..
2025-07-17 14:00:00.205865 IP 150.95.130.41.64621 > 184.28.7.180.443: Flags [.], ack 1, win 65535, options [nop,nop,TS val 2452678356 ecr 3062177311,nop,nop,sack 1 {1437:209657}], length 0
	0x0000:  9819 2cf3 fddc 100e 7ecb 53f0 0800 4500  ..,.....~.S...E.
	0x0010:  0040 0000 4000 3b06 675f 965f 8229 b81c  .@..@.;.g_._.)..
	0x0020:  07b4 fc6d 01bb ce34 d0c3 0b3b ce4f b010  ...m...4...;.O..
	0x0030:  ffff b849 0000 0101 080a 9230 e6d4 b685  ...I.......0....
	0x0040:  1e1f 0101 050a 0b3b d3eb 0b3f 0147       .......;...?.G
2025-07-17 14:00:00.205867 IP 150.95.130.41.64621 > 184.28.7.180.443: Flags [.], ack 1, win 65535, options [nop,nop,TS val 2452678356 ecr 3062177311,nop,nop,sack 1 {1437:211093}], length 0
	0x0000:  9819 2cf3 fddc 100e 7ecb 53f0 0800 4500  ..,.....~.S...E.
	0x0010:  0040 0000 4000 3b06 675f 965f 8229 b81c  .@..@.;.g_._.)..
	0x0020:  07b4 fc6d 01bb ce34 d0c3 0b3b ce4f b010  ...m...4...;.O..
	0x0030:  ffff b2ad 0000 0101 080a 9230 e6d4 b685  ...........0....
	0x0040:  1e1f 0101 050a 0b3b d3eb 0b3f 06e3       .......;...?..
2025-07-17 14:00:00.205868 IP 52.134.77.215.3479 > 202.133.239.168.50014: UDP, length 123
	0x0000:  f07c c711 7054 70e4 2243 978b 0800 4500  .|..pTp."C....E.
	0x0010:  0097 8352 0000 7711 8378 3486 4dd7 ca85  ...R..w..x4.M...
	0x0020:  efa8 0d97 c35e 0083 ecf6                 .....^....
2025-07-17 14:00:00.205868 IP 150.95.130.41.64621 > 184.28.7.180.443: Flags [.], ack 1, win 65535, options [nop,nop,TS val 2452678356 ecr 3062177311,nop,nop,sack 1 {1437:213965}], length 0
	0x0000:  9819 2cf3 fddc 100e 7ecb 53f0 0800 4500  ..,.....~.S...E.
	0x0010:  0040 0000 4000 3b06 675f 965f 8229 b81c  .@..@.;.g_._.)..
	0x0020:  07b4 fc6d 01bb ce34 d0c3 0b3b ce4f b010  ...m...4...;.O..
	0x0030:  ffff a775 0000 0101 080a 9230 e6d4 b685  ...u.......0....
	0x0040:  1e1f 0101 050a 0b3b d3eb 0b3f 121b       .......;...?..
2025-07-17 14:00:00.205870 IP 150.95.130.41.64621 > 184.28.7.180.443: Flags [.], ack 1, win 65535, options [nop,nop,TS val 2452678356 ecr 3062177311,nop,nop,sack 1 {1437:215401}], length 0
	0x0000:  9819 2cf3 fddc 100e 7ecb 53f0 0800 4500  ..,.....~.S...E.
	0x0010:  0040 0000 4000 3b06 675f 965f 8229 b81c  .@..@.;.g_._.)..
	0x0020:  07b4 fc6d 01bb ce34 d0c3 0b3b ce4f b010  ...m...4...;.O..
	0x0030:  ffff a1d9 0000 0101 080a 9230 e6d4 b685  ...........0....
	0x0040:  1e1f 0101 050a 0b3b d3eb 0b3f 17b7       .......;...?..
2025-07-17 14:00:00.205871 IP 76.230.32.56 > 203.50.232.44: ICMP echo reply, id 36834, seq 4486, length 12
	0x0000:  100e 7ecb 53f0 04a5 262e ee88 0800 4500  ..~.S...&.....E.
	0x0010:  0020 6f16 0000 3501 f649 4ce6 2038 cb32  ..o...5..IL..8.2
	0x0020:  e82c 0000 e987 8fe2 1186                 .,........
2025-07-17 14:00:00.205872 IP 52.147.223.254.443 > 202.133.239.167.52196: Flags [P.], seq 2087356936:2087356979, ack 4122247105, win 16384, length 43
	0x0000:  f07c c711 7054 70e4 2243 978b 0800 4500  .|..pTp."C....E.
	0x0010:  0053 afba 4000 7706 852b 3493 dffe ca85  .S..@.w..+4.....
	0x0020:  efa7 01bb cbe4 7c6a 8a08 f5b4 7fc1 5018  ......|j......P.
	0x0030:  4000 2104 0000                           @.!...
2025-07-17 14:00:00.205873 IP 150.95.130.41.64621 > 184.28.7.180.443: Flags [.], ack 1, win 65535, options [nop,nop,TS val 2452678356 ecr 3062177311,nop,nop,sack 1 {1437:216837}], length 0
	0x0000:  9819 2cf3 fddc 100e 7ecb 53f0 0800 4500  ..,.....~.S...E.
	0x0010:  0040 0000 4000 3b06 675f 965f 8229 b81c  .@..@.;.g_._.)..
	0x0020:  07b4 fc6d 01bb ce34 d0c3 0b3b ce4f b010  ...m...4...;.O..
	0x0030:  ffff 9c3d 0000 0101 080a 9230 e6d4 b685  ...=.......0....
	0x0040:  1e1f 0101 050a 0b3b d3eb 0b3f 1d53       .......;...?.S
2025-07-17 14:00:00.205881 IP 163.61.55.46 > 162.206.125.129: ICMP host 163.61.2.45 unreachable, length 36
	0x0000:  4088 2fbc 62e0 100e 7ecb 53f0 0800 4500  @./.b...~.S...E.
	0x0010:  0038 22f8 0000 3a01 6312 a33d 372e a2ce  .8"...:.c..=7...
	0x0020:  7d81 0301 9850 0000 0000 4500 0028 e37e  }....P....E..(.~
	0x0030:  0000 2611 eb8c a2ce 7d81 a33d 022d 32a1  ..&.....}..=.-2.
	0x0040:  0fee 0014 5c69                           ....\i
2025-07-17 14:00:00.205886 IP 165.153.116.222.47250 > 163.61.188.246.22222: Flags [S], seq 239162833, win 1024, options [mss 1412], length 0
	0x0000:  100e 7ecb 53f0 6c6c d367 9a69 0800 4500  ..~.S.ll.g.i..E.
	0x0010:  002c 0000 4000 3206 ce20 a599 74de a33d  .,..@.2.....t..=
	0x0020:  bcf6 b892 56ce 0e41 55d1 0000 0000 6002  ....V..AU.....`.
	0x0030:  0400 a637 0000 0204 0584                 ...7......
2025-07-17 14:00:00.205896 IP 163.61.119.80.55272 > 170.134.248.50.8801: UDP, length 1253
	0x0000:  7c25 8655 aae2 100e 7ecb 53f0 0800 4500  |%.U....~.S...E.
	0x0010:  0501 5dc7 0000 3b11 5fde a33d 7750 aa86  ..]...;._..=wP..
	0x0020:  f832 d7e8 2261 04ed 9098                 .2.."a....
2025-07-17 14:00:00.205898 IP 150.95.130.41.64621 > 184.28.7.180.443: Flags [.], ack 1, win 65535, options [nop,nop,TS val 2452678356 ecr 3062177311,nop,nop,sack 1 {1437:218273}], length 0
	0x0000:  9819 2cf3 fddc 100e 7ecb 53f0 0800 4500  ..,.....~.S...E.
	0x0010:  0040 0000 4000 3b06 675f 965f 8229 b81c  .@..@.;.g_._.)..
	0x0020:  07b4 fc6d 01bb ce34 d0c3 0b3b ce4f b010  ...m...4...;.O..
	0x0030:  ffff 96a1 0000 0101 080a 9230 e6d4 b685  ...........0....
	0x0040:  1e1f 0101 050a 0b3b d3eb 0b3f 22ef       .......;...?".
2025-07-17 14:00:00.205900 IP 163.61.119.80.55272 > 170.134.248.50.8801: UDP, length 1253
	0x0000:  7c25 8655 aae2 100e 7ecb 53f0 0800 4500  |%.U....~.S...E.
	0x0010:  0501 a1eb 0000 3b11 1bba a33d 7750 aa86  ......;....=wP..
	0x0020:  f832 d7e8 2261 04ed 0ea1                 .2.."a....
2025-07-17 14:00:00.205901 IP 150.95.130.41.64621 > 184.28.7.180.443: Flags [.], ack 1, win 65535, options [nop,nop,TS val 2452678357 ecr 3062177311,nop,nop,sack 1 {1437:221145}], length 0
	0x0000:  9819 2cf3 fddc 100e 7ecb 53f0 0800 4500  ..,.....~.S...E.
	0x0010:  0040 0000 4000 3b06 675f 965f 8229 b81c  .@..@.;.g_._.)..
	0x0020:  07b4 fc6d 01bb ce34 d0c3 0b3b ce4f b010  ...m...4...;.O..
	0x0030:  ffff 8b68 0000 0101 080a 9230 e6d5 b685  ...h.......0....
	0x0040:  1e1f 0101 050a 0b3b d3eb 0b3f 2e27       .......;...?.'
2025-07-17 14:00:00.205902 IP 150.95.130.41.64621 > 184.28.7.180.443: Flags [.], ack 1, win 65535, options [nop,nop,TS val 2452678357 ecr 3062177311,nop,nop,sack 1 {1437:224017}], length 0
	0x0000:  9819 2cf3 fddc 100e 7ecb 53f0 0800 4500  ..,.....~.S...E.
	0x0010:  0040 0000 4000 3b06 675f 965f 8229 b81c  .@..@.;.g_._.)..
	0x0020:  07b4 fc6d 01bb ce34 d0c3 0b3b ce4f b010  ...m...4...;.O..
	0x0030:  ffff 8030 0000 0101 080a 9230 e6d5 b685  ...0.......0....
	0x0040:  1e1f 0101 050a 0b3b d3eb 0b3f 395f       .......;...?9_
2025-07-17 14:00:00.205903 IP 150.95.130.41.64621 > 184.28.7.180.443: Flags [.], ack 1, win 65535, options [nop,nop,TS val 2452678357 ecr 3062177311,nop,nop,sack 1 {1437:225453}], length 0
	0x0000:  9819 2cf3 fddc 100e 7ecb 53f0 0800 4500  ..,.....~.S...E.
	0x0010:  0040 0000 4000 3b06 675f 965f 8229 b81c  .@..@.;.g_._.)..
	0x0020:  07b4 fc6d 01bb ce34 d0c3 0b3b ce4f b010  ...m...4...;.O..
	0x0030:  ffff 7a94 0000 0101 080a 9230 e6d5 b685  ..z........0....
	0x0040:  1e1f 0101 050a 0b3b d3eb 0b3f 3efb       .......;...?>.
2025-07-17 14:00:00.205905 IP 194.180.49.7.45995 > 202.138.43.156.17406: Flags [S], seq 2006045284, win 1024, length 0
	0x0000:  100e 7ecb 53f0 4088 2fbc 62e0 0800 4500  ..~.S.@./.b...E.
	0x0010:  0028 a53e 0000 f806 33af c2b4 3107 ca8a  .(.>....3...1...
	0x0020:  2b9c b3ab 43fe 7791 d264 0000 0000 5002  +...C.w..d....P.
	0x0030:  0400 8060 0000                           ...`..
2025-07-17 14:00:00.205909 IP 101.102.160.211.443 > 133.20.103.139.31477: Flags [P.], seq 313:610, ack 1, win 65535, length 297
	0x0000:  f07c c711 7054 70e4 2243 978b 0800 4500  .|..pTp."C....E.
	0x0010:  0151 0c97 4000 fb06 7f36 6566 a0d3 8514  .Q..@....6ef....
	0x0020:  678b 01bb 7af5 b2ef 3766 e687 2797 5018  g...z...7f..'.P.
	0x0030:  ffff dc24 0000                           ...$..
2025-07-17 14:00:00.205929 IP 163.61.119.80.55272 > 170.134.248.50.8801: UDP, length 1253
	0x0000:  7c25 8655 aae2 100e 7ecb 53f0 0800 4500  |%.U....~.S...E.
	0x0010:  0501 8e65 0000 3b11 2f40 a33d 7750 aa86  ...e..;./@.=wP..
	0x0020:  f832 d7e8 2261 04ed 281b                 .2.."a..(.
2025-07-17 14:00:00.205933 IP 163.61.119.80.53211 > 170.134.248.50.8801: UDP, length 297
	0x0000:  7c25 8655 aae2 100e 7ecb 53f0 0800 4500  |%.U....~.S...E.
	0x0010:  0145 b37c 0000 3b11 0de5 a33d 7750 aa86  .E.|..;....=wP..
	0x0020:  f832 cfdb 2261 0131 21c9                 .2.."a.1!.
2025-07-17 14:00:00.205942 IP 150.95.207.31 > 210.194.79.186: [|ESP]
	0x0000:  fcbd 67f5 4bdf 100e 7ecb 53f0 0800 4500  ..g.K...~.S...E.
	0x0010:  049c cc37 0000 3c32 25fd 965f cf1f d2c2  ...7..<2%.._....
	0x0020:  4fba                                     O.
2025-07-17 14:00:00.205963 IP 83.161.101.242.56391 > 163.61.160.160.42188: Flags [S], seq 478666843, win 1024, length 0
	0x0000:  100e 7ecb 53f0 04a5 262e ee88 0800 4500  ..~.S...&.....E.
	0x0010:  0028 e4c3 0000 f306 e59a 53a1 65f2 a33d  .(........S.e..=
	0x0020:  a0a0 dc47 a4cc 1c87 e05b 0000 0000 5002  ...G.....[....P.
	0x0030:  0400 307a 0000                           ..0z..
2025-07-17 14:00:00.205965 IP 150.95.130.41.64621 > 184.28.7.180.443: Flags [.], ack 1, win 65535, options [nop,nop,TS val 2452678358 ecr 3062177311,nop,nop,sack 1 {1437:228325}], length 0
	0x0000:  9819 2cf3 fddc 100e 7ecb 53f0 0800 4500  ..,.....~.S...E.
	0x0010:  0040 0000 4000 3b06 675f 965f 8229 b81c  .@..@.;.g_._.)..
	0x0020:  07b4 fc6d 01bb ce34 d0c3 0b3b ce4f b010  ...m...4...;.O..
	0x0030:  ffff 6f5b 0000 0101 080a 9230 e6d6 b685  ..o[.......0....
	0x0040:  1e1f 0101 050a 0b3b d3eb 0b3f 4a33       .......;...?J3
2025-07-17 14:00:00.205967 IP 150.95.130.41.64621 > 184.28.7.180.443: Flags [.], ack 1, win 65535, options [nop,nop,TS val 2452678358 ecr 3062177311,nop,nop,sack 1 {1437:231197}], length 0
	0x0000:  9819 2cf3 fddc 100e 7ecb 53f0 0800 4500  ..,.....~.S...E.
	0x0010:  0040 0000 4000 3b06 675f 965f 8229 b81c  .@..@.;.g_._.)..
	0x0020:  07b4 fc6d 01bb ce34 d0c3 0b3b ce4f b010  ...m...4...;.O..
	0x0030:  ffff 6423 0000 0101 080a 9230 e6d6 b685  ..d#.......0....
	0x0040:  1e1f 0101 050a 0b3b d3eb 0b3f 556b       .......;...?Uk
2025-07-17 14:00:00.205968 IP 203.50.248.175.53086 > 13.156.113.111.443: Flags [.], ack 1, win 8191, options [nop,nop,sack 4 {568751:598751}{487501:537501}{541251:563751}{8751:252501}], length 0
	0x0000:  04a5 262e ee88 100e 7ecb 53f0 0800 4500  ..&.....~.S...E.
	0x0010:  004c 7b02 4000 7b06 41bc cb32 f8af 0d9c  .L{.@.{.A..2....
	0x0020:  716f cf5e 01bb ad0d 26d7 d1d7 f1f7 e010  qo.^....&.......
	0x0030:  1fff e1bf 0000 0101 0522 d1e0 9fa5 d1e1  ........."......
	0x0040:  14d5 d1df 6243 d1e0 2593 d1e0 3439 d1e0  ....bC..%...49..
	0x0050:  8c1d d1d8 1425 d1db cc4b                 .....%...K
2025-07-17 14:00:00.205977 IP 186.238.15.1 > 203.50.232.44: ICMP echo reply, id 36834, seq 4486, length 12
	0x0000:  100e 7ecb 53f0 04a5 262e ee88 0800 4500  ..~.S...&.....E.
	0x0010:  0020 cdfa 4000 f201 3d93 baee 0f01 cb32  ....@...=......2
	0x0020:  e82c 0000 718e 8fe2 1186                 .,..q.....
2025-07-17 14:00:00.205994 IP 203.50.254.106.9174 > 52.151.155.245.443: Flags [.], ack 3547906139, win 1023, length 0
	0x0000:  6c6c d367 9a69 100e 7ecb 53f0 0800 4500  ll.g.i..~.S...E.
	0x0010:  0028 7df6 4000 7e06 e4af cb32 fe6a 3497  .(}.@.~....2.j4.
	0x0020:  9bf5 23d6 01bb a507 6d17 d378 c05b 5010  ..#.....m..x.[P.
	0x0030:  03ff 4627 0000                           ..F'..
2025-07-17 14:00:00.205997 IP 133.36.48.195.56780 > 162.223.57.232.443: Flags [.], ack 1695518807, win 512, length 0
	0x0000:  7c25 8655 aae2 100e 7ecb 53f0 0800 4500  |%.U....~.S...E.
	0x0010:  0028 b6c3 4000 7a06 b75d 8524 30c3 a2df  .(..@.z..].$0...
	0x0020:  39e8 ddcc 01bb 07f5 8383 650f 9057 5010  9.........e..WP.
	0x0030:  0200 babe 0000                           ......
2025-07-17 14:00:00.206001 IP 133.36.48.195.56669 > 162.223.60.149.443: Flags [.], ack 1605826239, win 509, length 0
	0x0000:  7c25 8655 aae2 100e 7ecb 53f0 0800 4500  |%.U....~.S...E.
	0x0010:  0028 2362 4000 7a06 4812 8524 30c3 a2df  .(#b@.z.H..$0...
	0x0020:  3c95 dd5d 01bb 66df 6291 5fb6 f6bf 5010  <..]..f.b._...P.
	0x0030:  01fd 197c 0000                           ...|..
2025-07-17 14:00:00.206004 IP 13.127.74.134.443 > 202.133.239.166.59433: Flags [P.], seq 1340179880:1340179918, ack 3680390601, win 186, length 38
	0x0000:  f07c c711 7054 70e4 2243 978b 0800 4500  .|..pTp."C....E.
	0x0010:  004e 227a 4000 f706 4efe 0d7f 4a86 ca85  .N"z@...N...J...
	0x0020:  efa6 01bb e829 4fe1 85a8 db5e 4dc9 5018  .....)O....^M.P.
	0x0030:  00ba 37b3 0000                           ..7...
2025-07-17 14:00:00.206027 IP 52.134.77.215.3479 > 202.133.239.168.50014: UDP, length 72
	0x0000:  f07c c711 7054 70e4 2243 978b 0800 4500  .|..pTp."C....E.
	0x0010:  0064 8353 0000 7711 83aa 3486 4dd7 ca85  .d.S..w...4.M...
	0x0020:  efa8 0d97 c35e 0050 13f4                 .....^.P..
2025-07-17 14:00:00.206030 IP 203.50.232.44 > 207.165.147.103: ICMP echo request, id 39906, seq 4681, length 12
	0x0000:  04a5 262e ee88 100e 7ecb 53f0 0800 4500  ..&.....~.S...E.
	0x0010:  0020 c9b5 4000 3f01 5bbb cb32 e82c cfa5  ....@.?.[..2.,..
	0x0020:  9367 0800 afe4 9be2 1249                 .g.......I
2025-07-17 14:00:00.206030 IP 150.95.219.170.62042 > 184.25.253.84.80: Flags [P.], seq 1842547645:1842547894, ack 4209613775, win 1026, length 249: HTTP
	0x0000:  9819 2cf3 fddc 100e 7ecb 53f0 0800 4500  ..,.....~.S...E.
	0x0010:  0121 b97d 4000 7c06 1ce1 965f dbaa b819  .!.}@.|...._....
	0x0020:  fd54 f25a 0050 6dd3 0bbd fae9 9bcf 5018  .T.Z.Pm.......P.
	0x0030:  0402 c96a 0000                           ...j..
2025-07-17 14:00:00.206032 IP 203.50.232.44 > 122.208.132.170: ICMP echo request, id 42466, seq 4830, length 12
	0x0000:  cee1 94a2 2306 100e 7ecb 53f0 0800 4500  ....#...~.S...E.
	0x0010:  0020 64e1 4000 3f01 2422 cb32 e82c 7ad0  ..d.@.?.$".2.,z.
	0x0020:  84aa 0800 9775 a5e2 12de                 .....u....
2025-07-17 14:00:00.206033 IP 150.95.130.41.64621 > 184.28.7.180.443: Flags [.], ack 1, win 65535, options [nop,nop,TS val 2452678358 ecr 3062177311,nop,nop,sack 1 {1437:232633}], length 0
	0x0000:  9819 2cf3 fddc 100e 7ecb 53f0 0800 4500  ..,.....~.S...E.
	0x0010:  0040 0000 4000 3b06 675f 965f 8229 b81c  .@..@.;.g_._.)..
	0x0020:  07b4 fc6d 01bb ce34 d0c3 0b3b ce4f b010  ...m...4...;.O..
	0x0030:  ffff 5e87 0000 0101 080a 9230 e6d6 b685  ..^........0....
	0x0040:  1e1f 0101 050a 0b3b d3eb 0b3f 5b07       .......;...?[.
2025-07-17 14:00:00.206035 IP 150.95.130.41.64621 > 184.28.7.180.443: Flags [.], ack 1, win 65535, options [nop,nop,TS val 2452678358 ecr 3062177311,nop,nop,sack 1 {1437:235505}], length 0
	0x0000:  9819 2cf3 fddc 100e 7ecb 53f0 0800 4500  ..,.....~.S...E.
	0x0010:  0040 0000 4000 3b06 675f 965f 8229 b81c  .@..@.;.g_._.)..
	0x0020:  07b4 fc6d 01bb ce34 d0c3 0b3b ce4f b010  ...m...4...;.O..
	0x0030:  ffff 534f 0000 0101 080a 9230 e6d6 b685  ..SO.......0....
	0x0040:  1e1f 0101 050a 0b3b d3eb 0b3f 663f       .......;...?f?
2025-07-17 14:00:00.206036 IP 150.95.130.41.64621 > 184.28.7.180.443: Flags [.], ack 1, win 65535, options [nop,nop,TS val 2452678359 ecr 3062177311,nop,nop,sack 1 {1437:238377}], length 0
	0x0000:  9819 2cf3 fddc 100e 7ecb 53f0 0800 4500  ..,.....~.S...E.
	0x0010:  0040 0000 4000 3b06 675f 965f 8229 b81c  .@..@.;.g_._.)..
	0x0020:  07b4 fc6d 01bb ce34 d0c3 0b3b ce4f b010  ...m...4...;.O..
	0x0030:  ffff 4816 0000 0101 080a 9230 e6d7 b685  ..H........0....
	0x0040:  1e1f 0101 050a 0b3b d3eb 0b3f 7177       .......;...?qw
2025-07-17 14:00:00.206037 IP 150.95.130.41.64621 > 184.28.7.180.443: Flags [.], ack 1, win 65535, options [nop,nop,TS val 2452678359 ecr 3062177311,nop,nop,sack 1 {1437:239813}], length 0
	0x0000:  9819 2cf3 fddc 100e 7ecb 53f0 0800 4500  ..,.....~.S...E.
	0x0010:  0040 0000 4000 3b06 675f 965f 8229 b81c  .@..@.;.g_._.)..
	0x0020:  07b4 fc6d 01bb ce34 d0c3 0b3b ce4f b010  ...m...4...;.O..
	0x0030:  ffff 427a 0000 0101 080a 9230 e6d7 b685  ..Bz.......0....
	0x0040:  1e1f 0101 050a 0b3b d3eb 0b3f 7713       .......;...?w.
2025-07-17 14:00:00.206038 IP 60.117.199.102 > 203.50.232.44: ICMP echo reply, id 42466, seq 200, length 12
	0x0000:  100e 7ecb 53f0 6c6c d367 9a69 0800 4518  ..~.S.ll.g.i..E.
	0x0010:  0020 1e0c 0000 3d01 a87e 3c75 c766 cb32  ......=..~<u.f.2
	0x0020:  e82c 0000 638c a5e2 00c8                 .,..c.....
2025-07-17 14:00:00.206038 IP 150.95.130.41.64621 > 184.28.7.180.443: Flags [.], ack 1, win 65535, options [nop,nop,TS val 2452678359 ecr 3062177311,nop,nop,sack 1 {1437:244121}], length 0
	0x0000:  9819 2cf3 fddc 100e 7ecb 53f0 0800 4500  ..,.....~.S...E.
	0x0010:  0040 0000 4000 3b06 675f 965f 8229 b81c  .@..@.;.g_._.)..
	0x0020:  07b4 fc6d 01bb ce34 d0c3 0b3b ce4f b010  ...m...4...;.O..
	0x0030:  ffff 31a6 0000 0101 080a 9230 e6d7 b685  ..1........0....
	0x0040:  1e1f 0101 050a 0b3b d3eb 0b3f 87e7       .......;...?..
2025-07-17 14:00:00.206039 IP 203.50.232.44 > 117.175.105.72: ICMP echo request, id 39906, seq 4681, length 12
	0x0000:  cee1 94a2 2306 100e 7ecb 53f0 0800 4500  ....#...~.S...E.
	0x0010:  0020 5156 4000 3f01 5830 cb32 e82c 75af  ..QV@.?.X0.2.,u.
	0x0020:  6948 0800 aee4 9be2 1249                 iH.......I
2025-07-17 14:00:00.206040 IP 150.95.130.41.64621 > 184.28.7.180.443: Flags [.], ack 1, win 65535, options [nop,nop,TS val 2452678360 ecr 3062177311,nop,nop,sack 1 {1437:246993}], length 0
	0x0000:  9819 2cf3 fddc 100e 7ecb 53f0 0800 4500  ..,.....~.S...E.
	0x0010:  0040 0000 4000 3b06 675f 965f 8229 b81c  .@..@.;.g_._.)..
	0x0020:  07b4 fc6d 01bb ce34 d0c3 0b3b ce4f b010  ...m...4...;.O..
	0x0030:  ffff 266d 0000 0101 080a 9230 e6d8 b685  ..&m.......0....
	0x0040:  1e1f 0101 050a 0b3b d3eb 0b3f 931f       .......;...?..
2025-07-17 14:00:00.206042 IP 150.95.130.41.64621 > 184.28.7.180.443: Flags [.], ack 1, win 65535, options [nop,nop,TS val 2452678360 ecr 3062177311,nop,nop,sack 1 {1437:249865}], length 0
	0x0000:  9819 2cf3 fddc 100e 7ecb 53f0 0800 4500  ..,.....~.S...E.
	0x0010:  0040 0000 4000 3b06 675f 965f 8229 b81c  .@..@.;.g_._.)..
	0x0020:  07b4 fc6d 01bb ce34 d0c3 0b3b ce4f b010  ...m...4...;.O..
	0x0030:  ffff 1b35 0000 0101 080a 9230 e6d8 b685  ...5.......0....
	0x0040:  1e1f 0101 050a 0b3b d3eb 0b3f 9e57       .......;...?.W
2025-07-17 14:00:00.206057 IP 87.44.127.57.23154 > 203.50.251.100.19336: UDP, length 1084
	0x0000:  100e 7ecb 53f0 04a5 262e ee88 0800 4500  ..~.S...&.....E.
	0x0010:  0458 064e 0000 7311 a04a 572c 7f39 cb32  .X.N..s..JW,.9.2
	0x0020:  fb64 5a72 4b88 0444 36a9                 .dZrK..D6.
2025-07-17 14:00:00.206065 IP 150.95.207.31 > 210.194.79.186: [|ESP]
	0x0000:  fcbd 67f5 4bdf 100e 7ecb 53f0 0800 4500  ..g.K...~.S...E.
	0x0010:  048c cf37 0000 3c32 230d 965f cf1f d2c2  ...7..<2#.._....
	0x0020:  4fba                                     O.
2025-07-17 14:00:00.206076 IP 142.4.2.173.443 > 202.133.239.167.63723: Flags [.], seq 3385463443:3385466183, ack 982894247, win 1050, options [nop,nop,TS val 1319064198 ecr 1167780598], length 2740
	0x0000:  100e 7ecb 53f0 6c62 fed1 c33c 0800 4500  ..~.S.lb...<..E.
	0x0010:  0ae8 08a9 0000 7e06 de88 8e04 02ad ca85  ......~.........
	0x0020:  efa7 01bb f8eb c9ca 1293 3a95 c6a7 8010  ..........:.....
	0x0030:  041a 2ee2 0000 0101 080a 4e9f 5286 459a  ..........N.R.E.
	0x0040:  eaf6                                     ..
2025-07-17 14:00:00.206083 IP 167.78.204.50.55096 > 133.61.36.239.40748: Flags [R.], seq 2794580825, ack 1369234803, win 22, options [nop,nop,TS val 1535402302 ecr 2549023937], length 0
	0x0000:  100e 7ecb 53f0 04a5 262e ee88 0800 4500  ..~.S...&.....E.
	0x0010:  0034 b331 4000 3706 72e5 a74e cc32 853d  .4.1@.7.r..N.2.=
	0x0020:  24ef d738 9f2c a691 eb59 519c dd73 8014  $..8.,...YQ..s..
	0x0030:  0016 c821 0000 0101 080a 5b84 613e 97ef  ...!......[.a>..
	0x0040:  04c1                                     ..
2025-07-17 14:00:00.206094 IP 202.133.239.165.37990 > 54.230.185.188.443: Flags [.], ack 944789678, win 1263, options [nop,nop,TS val 1145482019 ecr 4112687179], length 0
	0x0000:  04a5 262e ee88 100e 7ecb 53f0 0800 4500  ..&.....~.S...E.
	0x0010:  0034 dbed 4000 3b06 b908 ca85 efa5 36e6  .4..@.;.......6.
	0x0020:  b9bc 9466 01bb 0f17 16fa 3850 58ae 8010  ...f......8PX...
	0x0030:  04ef f4f6 0000 0101 080a 4446 ab23 f522  ..........DF.#."
	0x0040:  a04b                                     .K
2025-07-17 14:00:00.206098 IP 150.95.165.31.55460 > 40.129.247.20.443: Flags [P.], seq 4137709578:4137709870, ack 3667474599, win 255, length 292
	0x0000:  6c6c d367 9a69 100e 7ecb 53f0 0800 4500  ll.g.i..~.S...E.
	0x0010:  014c 0be4 4000 7906 99b3 965f a51f 2881  .L..@.y...._..(.
	0x0020:  f714 d8a4 01bb f6a0 700a da99 38a7 5018  ........p...8.P.
	0x0030:  00ff 6c87 0000                           ..l...
2025-07-17 14:00:00.206100 IP 155.4.252.166.443 > 131.141.110.208.10411: Flags [P.], seq 1132813101:1132813138, ack 1287273096, win 9091, length 37
	0x0000:  f07c c711 7054 70e4 2243 978b 0800 4500  .|..pTp."C....E.
	0x0010:  004d aaad 4000 3c06 09f5 9b04 fca6 838d  .M..@.<.........
	0x0020:  6ed0 01bb 28ab 4385 5b2d 4cba 3a88 5018  n...(.C.[-L.:.P.
	0x0030:  2383 f14c 0000                           #..L..
2025-07-17 14:00:00.206105 IP 203.50.232.44 > 85.105.253.214: ICMP echo request, id 36834, seq 4486, length 12
	0x0000:  04a5 262e ee88 100e 7ecb 53f0 0800 4500  ..&.....~.S...E.
	0x0010:  0020 1d2d 4000 3f01 1811 cb32 e82c 5569  ...-@.?....2.,Ui
	0x0020:  fdd6 0800 e982 8fe2 1186                 ..........
2025-07-17 14:00:00.206122 IP 52.62.178.81.443 > 202.133.239.191.54984: Flags [R.], seq 2891052687, ack 1442118773, win 0, length 0
	0x0000:  f07c c711 7054 70e4 2243 978b 0800 4500  .|..pTp."C....E.
	0x0010:  0028 8434 4000 7306 e2c6 343e b251 ca85  .(.4@.s...4>.Q..
	0x0020:  efbf 01bb d6c8 ac51 f68f 55f4 fc75 5014  .......Q..U..uP.
	0x0030:  0000 412c 0000                           ..A,..
2025-07-17 14:00:00.206123 IP 203.50.232.44 > 154.91.226.107: ICMP echo request, id 36834, seq 4486, length 12
	0x0000:  04a5 262e ee88 100e 7ecb 53f0 0800 4500  ..&.....~.S...E.
	0x0010:  0020 3350 4000 3f01 d866 cb32 e82c 9a5b  ..3P@.?..f.2.,.[
	0x0020:  e26b 0800 e882 8fe2 1186                 .k........
2025-07-17 14:00:00.206127 IP 202.133.239.165.37990 > 54.230.185.188.443: Flags [.], ack 57541, win 1225, options [nop,nop,TS val 1145482019 ecr 4112687180], length 0
	0x0000:  04a5 262e ee88 100e 7ecb 53f0 0800 4500  ..&.....~.S...E.
	0x0010:  0034 dbee 4000 3b06 b907 ca85 efa5 36e6  .4..@.;.......6.
	0x0020:  b9bc 9466 01bb 0f17 16fa 3851 3972 8010  ...f......8Q9r..
	0x0030:  04c9 1457 0000 0101 080a 4446 ab23 f522  ...W......DF.#."
	0x0040:  a04c                                     .L
2025-07-17 14:00:00.206128 IP 202.133.239.165.37986 > 54.230.185.188.443: Flags [.], ack 1340474772, win 1235, options [nop,nop,TS val 1145482019 ecr 3995688208], length 0
	0x0000:  04a5 262e ee88 100e 7ecb 53f0 0800 4500  ..&.....~.S...E.
	0x0010:  0034 894c 4000 3b06 0baa ca85 efa5 36e6  .4.L@.;.......6.
	0x0020:  b9bc 9462 01bb ca28 af97 4fe6 0594 8010  ...b...(..O.....
	0x0030:  04d3 2720 0000 0101 080a 4446 ab23 ee29  ..'.......DF.#.)
	0x0040:  5d10                                     ].
2025-07-17 14:00:00.206129 IP 202.133.239.242.50941 > 52.136.25.155.443: Flags [.], ack 3843165129, win 512, length 0
	0x0000:  6c6c d367 9a69 100e 7ecb 53f0 0800 4500  ll.g.i..~.S...E.
	0x0010:  0028 03e6 4000 7b06 f34e ca85 eff2 3488  .(..@.{..N....4.
	0x0020:  199b c6fd 01bb cdb9 0735 e512 0bc9 5010  .........5....P.
	0x0030:  0200 16b6 0000                           ......
2025-07-17 14:00:00.206130 IP 203.50.232.44 > 64.207.9.164: ICMP echo request, id 36834, seq 4486, length 12
	0x0000:  04a5 262e ee88 100e 7ecb 53f0 0800 4500  ..&.....~.S...E.
	0x0010:  0020 a3a9 4000 3f01 9a61 cb32 e82c 40cf  ....@.?..a.2.,@.
	0x0020:  09a4 0800 e782 8fe2 1186                 ..........
2025-07-17 14:00:00.206133 IP 133.36.57.51.62019 > 157.116.27.0.443: Flags [.], ack 3964567291, win 2903, options [nop,nop,TS val 1396578438 ecr 110036886], length 0
	0x0000:  d404 ffd8 34c3 100e 7ecb 53f0 0800 4500  ....4...~.S...E.
	0x0010:  0034 0000 4000 3906 caf8 8524 3933 9d74  .4..@.9....$93.t
	0x0020:  1b00 f243 01bb 8d69 0e0d ec4e 7efb 8010  ...C...i...N~...
	0x0030:  0b57 7ff1 0000 0101 080a 533e 1886 068f  .W........S>....
	0x0040:  0796                                     ..
2025-07-17 14:00:00.206137 IP6 2001:f338:117f:9ff5:33c0:98f6:c3fc:7b8d > 2001:f6df:de14:633:1c31:57fa:43c3:ffc1: [|gre]
	0x0000:  4088 2fbc 62e0 100e 7ecb 53f0 86dd 6000  @./.b...~.S...`.
	0x0010:  0000 0040 2ffc 2001 f338 117f 9ff5 33c0  ...@/....8....3.
	0x0020:  98f6 c3fc 7b8d 2001 f6df de14 0633 1c31  ....{........3.1
	0x0030:  57fa 43c3 ffc1                           W.C...
2025-07-17 14:00:00.206160 IP 202.133.239.37.21374 > 170.134.189.178.443: Flags [P.], seq 110020779:110021839, ack 2243989682, win 83, options [nop,nop,TS val 848940749 ecr 3621619404], length 1060
	0x0000:  7c25 8655 aae2 100e 7ecb 53f0 0800 4500  |%.U....~.S...E.
	0x0010:  0458 6c8b 4000 3b06 ad30 ca85 ef25 aa86  .Xl.@.;..0...%..
	0x0020:  bdb2 537e 01bb 068e c8ab 85c0 90b2 8018  ..S~............
	0x0030:  0053 8931 0000 0101 080a 3299 cecd d7dd  .S.1......2.....
	0x0040:  86cc                                     ..
2025-07-17 14:00:00.206161 IP 13.156.113.111.443 > 203.50.248.175.53086: Flags [.], seq 323751:326251, ack 0, win 133, length 2500
	0x0000:  f07c c711 7054 70e4 2243 978b 0800 4500  .|..pTp."C....E.
	0x0010:  09ec ae44 0000 fb06 c4d9 0d9c 716f cb32  ...D........qo.2
	0x0020:  f8af 01bb cf5e d1dc e29d ad0d 26d7 5010  .....^......&.P.
	0x0030:  0085 e9b7 0000                           ......
2025-07-17 14:00:00.206162 IP 142.4.219.234.443 > 131.140.1.9.55420: Flags [.], seq 34447088:34449888, ack 182986717, win 1045, options [nop,nop,TS val 3025189266 ecr 2653960699], length 2800
	0x0000:  100e 7ecb 53f0 6c62 fed1 c33c 0800 4500  ..~.S.lb...<..E.
	0x0010:  0b24 a556 0000 7e06 9df9 8e04 dbea 838c  .$.V..~.........
	0x0020:  0109 01bb d87c 020d 9ef0 0ae8 27dd 8010  .....|......'...
	0x0030:  0415 4cd3 0000 0101 080a b450 b992 9e30  ..L........P...0
	0x0040:  39fb                                     9.
2025-07-17 14:00:00.206163 IP 162.223.55.228.443 > 202.133.239.171.55408: Flags [.], ack 819978600, win 15, options [nop,nop,TS val 2509583336 ecr 2977676734], length 0
	0x0000:  100e 7ecb 53f0 f4bf a88b 7a24 0800 4588  ..~.S.....z$..E.
	0x0010:  0034 46a0 4000 3e06 60a7 a2df 37e4 ca85  .4F.@.>.`...7...
	0x0020:  efab 01bb d870 5ec2 ea36 30df e168 8010  .....p^..60..h..
	0x0030:  000f 7394 0000 0101 080a 9595 33e8 b17b  ..s.........3..{
	0x0040:  bdbe                                     ..
2025-07-17 14:00:00.206166 IP6 2404:77e1:b074:7e5e:c00f:f8ca:fffc:bff9.443 > 2001:f989:c134:c160:1a8b:d14e:d756:4863.53826: UDP, length 27
	0x0000:  100e 7ecb 53f0 6c62 fed1 c33c 86dd 6000  ..~.S.lb...<..`.
	0x0010:  0000 0023 113f 2404 77e1 b074 7e5e c00f  ...#.?$.w..t~^..
	0x0020:  f8ca fffc bff9 2001 f989 c134 c160 1a8b  ...........4.`..
	0x0030:  d14e d756 4863 01bb d242 0023 908a 50d8  .N.VHc...B.#..P.
	0x0040:  67c5 d96a fb67 2b18 b579 1097 ab0e e7c6  g..j.g+..y......
	0x0050:  cb1c 7b80 3197 7c3d aa                   ..{.1.|=.
2025-07-17 14:00:00.206168 IP 83.161.101.242.56391 > 163.61.214.117.14062: Flags [S], seq 3562097544, win 1024, length 0
	0x0000:  100e 7ecb 53f0 04a5 262e ee88 0800 4500  ..~.S...&.....E.
	0x0010:  0028 aad0 0000 f306 e9b8 53a1 65f2 a33d  .(........S.e..=
	0x0020:  d675 dc47 36ee d451 4b88 0000 0000 5002  .u.G6..QK.....P.
	0x0030:  0400 458c 0000                           ..E...
2025-07-17 14:00:00.206172 IP 150.95.36.124.65410 > 138.32.42.41.443: Flags [.], ack 2704624447, win 3383, options [nop,nop,TS val 2800105098 ecr 891849320], length 0
	0x0000:  c4ca 2b67 3a65 100e 7ecb 53f0 0800 4500  ..+g:e..~.S...E.
	0x0010:  0034 0000 4000 3a06 d19f 965f 247c 8a20  .4..@.:...._$|..
	0x0020:  2a29 ff82 01bb fd01 3047 a135 4b3f 8010  *)......0G.5K?..
	0x0030:  0d37 4264 0000 0101 080a a6e6 368a 3528  .7Bd........6.5(
	0x0040:  8a68                                     .h
2025-07-17 14:00:00.206174 IP 202.133.239.37.21388 > 170.134.189.178.443: Flags [P.], seq 624477436:624478496, ack 1127779813, win 83, options [nop,nop,TS val 848940749 ecr 3621619404], length 1060
	0x0000:  7c25 8655 aae2 100e 7ecb 53f0 0800 4500  |%.U....~.S...E.
	0x0010:  0458 f3c1 4000 3b06 25fa ca85 ef25 aa86  .X..@.;.%....%..
	0x0020:  bdb2 538c 01bb 2538 c4fc 4338 8de5 8018  ..S...%8..C8....
	0x0030:  0053 8810 0000 0101 080a 3299 cecd d7dd  .S........2.....
	0x0040:  86cc                                     ..
2025-07-17 14:00:00.206176 IP 202.133.239.37.21402 > 170.134.189.178.443: Flags [P.], seq 3226042310:3226043370, ack 3269495618, win 83, options [nop,nop,TS val 848940749 ecr 3621619404], length 1060
	0x0000:  7c25 8655 aae2 100e 7ecb 53f0 0800 4500  |%.U....~.S...E.
	0x0010:  0458 82ec 4000 3b06 96cf ca85 ef25 aa86  .X..@.;......%..
	0x0020:  bdb2 539a 01bb c049 7fc6 c2e0 8b42 8018  ..S....I.....B..
	0x0030:  0053 1fb7 0000 0101 080a 3299 cecd d7dd  .S........2.....
	0x0040:  86cc                                     ..
2025-07-17 14:00:00.206178 IP 150.95.207.31 > 210.194.79.186: [|ESP]
	0x0000:  fcbd 67f5 4bdf 100e 7ecb 53f0 0800 4500  ..g.K...~.S...E.
	0x0010:  048c ce37 0000 3c32 240d 965f cf1f d2c2  ...7..<2$.._....
	0x0020:  4fba                                     O.
2025-07-17 14:00:00.206187 IP 202.133.239.37.21406 > 170.134.189.178.443: Flags [P.], seq 271901537:271902597, ack 4150912018, win 83, options [nop,nop,TS val 848940749 ecr 3621619404], length 1060
	0x0000:  7c25 8655 aae2 100e 7ecb 53f0 0800 4500  |%.U....~.S...E.
	0x0010:  0458 246f 4000 3b06 f54c ca85 ef25 aa86  .X$o@.;..L...%..
	0x0020:  bdb2 539e 01bb 1034 e361 f769 e412 8018  ..S....4.a.i....
	0x0030:  0053 120f 0000 0101 080a 3299 cecd d7dd  .S........2.....
	0x0040:  86cc                                     ..
2025-07-17 14:00:00.206196 IP 164.170.109.6.443 > 133.36.5.5.58579: Flags [.], seq 57924875:57925923, ack 3973369714, win 158, options [nop,nop,TS val 558807076 ecr 4104340997], length 1048
	0x0000:  f07c c711 7054 70e4 2243 978b 0800 4500  .|..pTp."C....E.
	0x0010:  044c 9280 4000 3a06 0e52 a4aa 6d06 8524  .L..@.:..R..m..$
	0x0020:  0505 01bb e4d3 0373 dd0b ecd4 cf72 8010  .......s.....r..
	0x0030:  009e 751f 0000 0101 080a 214e b824 f4a3  ..u.......!N.$..
	0x0040:  4605                                     F.
2025-07-17 14:00:00.206199 IP 134.134.113.167.51459 > 163.61.68.106.10243: Flags [S], seq 1361047073, win 65535, options [mss 1460], length 0
	0x0000:  100e 7ecb 53f0 04a5 262e ee88 0800 4500  ..~.S...&.....E.
	0x0010:  002c d431 0000 f406 12c5 8686 71a7 a33d  .,.1........q..=
	0x0020:  446a c903 2803 511f ee21 0000 0000 6002  Dj..(.Q..!....`.
	0x0030:  ffff 8809 0000 0204 05b4                 ..........
2025-07-17 14:00:00.206201 IP 188.59.109.80.443 > 163.61.11.63.3702: UDP, length 19
	0x0000:  100e 7ecb 53f0 04a5 262e ee88 0800 4500  ..~.S...&.....E.
	0x0010:  002f 5b5c 0000 f111 9659 bc3b 6d50 a33d  ./[\.....Y.;mP.=
	0x0020:  0b3f 01bb 0e76 001b 0000 3c74 6473 3a47  .?...v....<tds:G
	0x0030:  6574 5365 7276 6963 6573                 etServices
2025-07-17 14:00:00.206204 IP 101.102.160.211.443 > 133.20.103.139.31477: Flags [P.], seq 610:1150, ack 1, win 65535, length 540
	0x0000:  f07c c711 7054 70e4 2243 978b 0800 4500  .|..pTp."C....E.
	0x0010:  0244 0cb4 4000 fb06 7e26 6566 a0d3 8514  .D..@...~&ef....
	0x0020:  678b 01bb 7af5 b2ef 388f e687 2797 5018  g...z...8...'.P.
	0x0030:  ffff 14d6 0000                           ......
2025-07-17 14:00:00.206204 IP 203.50.251.100.20736 > 91.44.162.67.27407: UDP, length 81
	0x0000:  04a5 262e ee88 100e 7ecb 53f0 0800 4500  ..&.....~.S...E.
	0x0010:  006d c554 4000 3c11 b524 cb32 fb64 5b2c  .m.T@.<..$.2.d[,
	0x0020:  a243 5100 6b0f 0059 07bd                 .CQ.k..Y..
2025-07-17 14:00:00.206206 IP6 2a09:63b8:79:a946:2000:d835:735c:8789.52832 > 2001:f989:c22d:de15:1002:68fc:cc03:3e0d.443: Flags [.], ack 801240329, win 244, options [nop,nop,TS val 1765022043 ecr 525971967], length 0
	0x0000:  100e 7ecb 53f0 4088 2fbc 62e0 86dd 6007  ..~.S.@./.b...`.
	0x0010:  b058 0020 0639 2a09 63b8 0079 a946 2000  .X...9*.c..y.F..
	0x0020:  d835 735c 8789 2001 f989 c22d de15 1002  .5s\.......-....
	0x0030:  68fc cc03 3e0d ce60 01bb e5a3 0ccd 2fc1  h...>..`....../.
	0x0040:  f509 8010 00f4 d30e 0000 0101 080a 6934  ..............i4
	0x0050:  195b 1f59 b1ff                           .[.Y..
2025-07-17 14:00:00.206211 IP6 2001:f338:117f:751d:d23c:c685:41d7:80aa.49552 > 2403:3ae0:2af2:715f:dc03:9839:8fff:c1e.443: Flags [P.], seq 901209896:901210035, ack 1451064729, win 6530, options [nop,nop,TS val 2542355677 ecr 3431526665], length 139
	0x0000:  14b3 a16a 4ee5 100e 7ecb 53f0 86dd 6004  ...jN...~.S...`.
	0x0010:  0a00 00ab 0639 2001 f338 117f 751d d23c  .....9...8..u..<
	0x0020:  c685 41d7 80aa 2403 3ae0 2af2 715f dc03  ..A...$.:.*.q_..
	0x0030:  9839 8fff 0c1e c190 01bb 35b7 5f28 567d  .9........5._(V}
	0x0040:  7d99 8018 1982 042c 0000 0101 080a 9789  }......,........
	0x0050:  44dd cc88 f109                           D.....
2025-07-17 14:00:00.206227 IP 164.170.109.6.443 > 133.36.5.5.58579: Flags [P.], seq 1048:1282, ack 1, win 158, options [nop,nop,TS val 558807076 ecr 4104340997], length 234
	0x0000:  f07c c711 7054 70e4 2243 978b 0800 4500  .|..pTp."C....E.
	0x0010:  011e 9282 4000 3a06 117e a4aa 6d06 8524  ....@.:..~..m..$
	0x0020:  0505 01bb e4d3 0373 e123 ecd4 cf72 8018  .......s.#...r..
	0x0030:  009e ba33 0000 0101 080a 214e b824 f4a3  ...3......!N.$..
	0x0040:  4605                                     F.
2025-07-17 14:00:00.206237 IP 65.204.49.129.42377 > 133.61.11.175.2083: Flags [S], seq 2110086384, win 65535, length 0
	0x0000:  100e 7ecb 53f0 4088 2fbc 62e0 0800 4500  ..~.S.@./.b...E.
	0x0010:  0028 d431 0000 f806 ea64 41cc 3181 853d  .(.1.....dA.1..=
	0x0020:  0baf a589 0823 7dc5 5cf0 0000 0000 5002  .....#}.\.....P.
	0x0030:  ffff 2347 0000                           ..#G..
2025-07-17 14:00:00.206247 IP 203.50.232.44 > 178.156.161.156: ICMP echo request, id 38370, seq 4597, length 12
	0x0000:  6c6c d367 9a69 100e 7ecb 53f0 0800 4500  ll.g.i..~.S...E.
	0x0010:  0020 c932 4000 3f01 6b12 cb32 e82c b29c  ...2@.?.k..2.,..
	0x0020:  a19c 0800 0c45 95e2 11f5                 .....E....
2025-07-17 14:00:00.206250 IP 172.42.32.21.443 > 150.95.42.152.45155: Flags [S.], seq 2094403931, ack 3283265086, win 65535, options [mss 1412,nop,nop,sackOK,nop,wscale 8], length 0
	0x0000:  100e 7ecb 53f0 6c62 fed1 c33c 0800 4500  ..~.S.lb...<..E.
	0x0010:  0034 0000 4000 7e06 6f8d ac2a 2015 965f  .4..@.~.o..*..._
	0x0020:  2a98 01bb b063 7cd6 115b c3b2 a63e 8012  *....c|..[...>..
	0x0030:  ffff 37b8 0000 0204 0584 0101 0402 0103  ..7.............
	0x0040:  0308                                     ..
2025-07-17 14:00:00.206253 IP 83.161.101.53.47889 > 150.95.116.75.20441: Flags [S], seq 2886672292, win 1024, length 0
	0x0000:  f07c c711 7054 70e4 2243 978b 0800 4500  .|..pTp."C....E.
	0x0010:  0028 a436 0000 f506 5e18 53a1 6535 965f  .(.6....^.S.e5._
	0x0020:  744b bb11 4fd9 ac0f 1fa4 0000 0000 5002  tK..O.........P.
	0x0030:  0400 11c3 0000                           ......
2025-07-17 14:00:00.206254 IP 152.97.82.210 > 203.50.232.44: ICMP host 152.97.82.210 unreachable, length 40
	0x0000:  100e 7ecb 53f0 04a5 262e ee88 0800 4500  ..~.S...&.....E.
	0x0010:  003c 82cb 0000 3301 6663 9861 52d2 cb32  .<....3.fc.aR..2
	0x0020:  e82c 0301 fcfe 0000 0000 4520 0020 931a  .,........E.....
	0x0030:  4000 3201 1710 cb32 e82c 9861 52d2 0800  @.2....2.,.aR...
	0x0040:  78ea 9be2 1249                           x....I
2025-07-17 14:00:00.206255 IP6 2001:f338:117f:751d:d23c:c685:41d7:80aa.49552 > 2403:3ae0:2af2:715f:dc03:9839:8fff:c1e.443: Flags [P.], seq 139:278, ack 1, win 6530, options [nop,nop,TS val 2542355677 ecr 3431526665], length 139
	0x0000:  14b3 a16a 4ee5 100e 7ecb 53f0 86dd 6004  ...jN...~.S...`.
	0x0010:  0a00 00ab 0639 2001 f338 117f 751d d23c  .....9...8..u..<
	0x0020:  c685 41d7 80aa 2403 3ae0 2af2 715f dc03  ..A...$.:.*.q_..
	0x0030:  9839 8fff 0c1e c190 01bb 35b7 5fb3 567d  .9........5._.V}
	0x0040:  7d99 8018 1982 b638 0000 0101 080a 9789  }......8........
	0x0050:  44dd cc88 f109                           D.....
2025-07-17 14:00:00.206255 IP 52.134.162.221.443 > 202.133.239.37.58466: Flags [P.], seq 2795553987:2795554090, ack 1544912168, win 16381, options [nop,nop,TS val 1589216598 ecr 2021075623], length 103
	0x0000:  f07c c711 7054 70e4 2243 978b 0800 4500  .|..pTp."C....E.
	0x0010:  009b dce5 4000 7706 9568 3486 a2dd ca85  ....@.w..h4.....
	0x0020:  ef25 01bb e462 a6a0 c4c3 5c15 7d28 8018  .%...b....\.}(..
	0x0030:  3ffd dd65 0000 0101 080a 5eb9 8556 7877  ?..e......^..Vxw
	0x0040:  2aa7                                     *.
2025-07-17 14:00:00.206261 IP 103.212.165.36.443 > 163.61.158.70.59854: Flags [P.], seq 1150795801:1150795852, ack 3656510579, win 84, options [nop,nop,TS val 3165408224 ecr 4134794465], length 51
	0x0000:  100e 7ecb 53f0 04a5 262e ee88 0800 4500  ..~.S...&.....E.
	0x0010:  0067 7276 4000 3806 819e 67d4 a524 a33d  .grv@.8...g..$.=
	0x0020:  9e46 01bb e9ce 4497 c019 d9f1 ec73 8018  .F....D......s..
	0x0030:  0054 678c 0000 0101 080a bcac 4be0 f673  .Tg.........K..s
	0x0040:  f4e1                                     ..
2025-07-17 14:00:00.206265 IP 203.50.251.100.45802 > 217.232.185.128.13497: Flags [.], ack 3590566076, win 4846, options [nop,nop,TS val 1155725903 ecr 2202509359], length 0
	0x0000:  04a5 262e ee88 100e 7ecb 53f0 0800 4500  ..&.....~.S...E.
	0x0010:  0034 50f0 4000 3c06 93d3 cb32 fb64 d9e8  .4P.@.<....2.d..
	0x0020:  b980 b2ea 34b9 72ff 8fba d603 b0bc 8010  ....4.r.........
	0x0030:  12ee 3607 0000 0101 080a 44e2 fa4f 8347  ..6.......D..O.G
	0x0040:  a02f                                     ./
2025-07-17 14:00:00.206277 IP 203.50.251.100.19336 > 91.44.162.67.27407: UDP, length 84
	0x0000:  04a5 262e ee88 100e 7ecb 53f0 0800 4500  ..&.....~.S...E.
	0x0010:  0070 c555 4000 3c11 b520 cb32 fb64 5b2c  .p.U@.<....2.d[,
	0x0020:  a243 4b88 6b0f 005c 1997                 .CK.k..\..
2025-07-17 14:00:00.206286 IP 35.181.8.14.443 > 131.140.6.75.35948: Flags [.], ack 3080288667, win 1027, options [nop,nop,TS val 2784274064 ecr 1984317232], length 0
	0x0000:  100e 7ecb 53f0 6c62 fed1 c33c 0800 4500  ..~.S.lb...<..E.
	0x0010:  0034 ebf0 0000 7e06 9b39 23b5 080e 838c  .4....~..9#.....
	0x0020:  064b 01bb 8c6c bb81 3c0b b799 799b 8010  .K...l..<...y...
	0x0030:  0403 fc3a 0000 0101 080a a5f4 a690 7646  ...:..........vF
	0x0040:  4730                                     G0
2025-07-17 14:00:00.206287 IP 83.161.101.242.56391 > 150.95.103.4.65047: Flags [S], seq 4082645287, win 1024, length 0
	0x0000:  f07c c711 7054 70e4 2243 978b 0800 4500  .|..pTp."C....E.
	0x0010:  0028 2124 0000 f506 edb4 53a1 65f2 965f  .(!$......S.e.._
	0x0020:  6704 dc47 fe17 f358 3927 0000 0000 5002  g..G...X9'....P.
	0x0030:  0400 ee0b 0000                           ......
2025-07-17 14:00:00.206289 IP 176.162.212.182.33356 > 133.61.195.108.48970: Flags [S], seq 4050590615, win 65535, length 0
	0x0000:  f07c c711 7054 70e4 2243 978b 0800 4500  .|..pTp."C....E.
	0x0010:  0028 d431 0000 ec06 2c9b b0a2 d4b6 853d  .(.1....,......=
	0x0020:  c36c 824c bf4a f16f 1b97 0000 0000 5002  .l.L.J.o......P.
	0x0030:  ffff 9341 0000                           ...A..
2025-07-17 14:00:00.206296 IP 203.50.232.44 > 66.205.104.58: ICMP echo request, id 38370, seq 4597, length 12
	0x0000:  04a5 262e ee88 100e 7ecb 53f0 0800 4500  ..&.....~.S...E.
	0x0010:  0020 182d 4000 3f01 c549 cb32 e82c 42cd  ...-@.?..I.2.,B.
	0x0020:  683a 0800 0b45 95e2 11f5                 h:...E....
2025-07-17 14:00:00.206300 IP 151.98.25.75.443 > 192.252.166.128.23056: Flags [.], seq 3770242379:3770246519, ack 4124204773, win 424, options [nop,nop,TS val 4093712696 ecr 1707342887], length 4140
	0x0000:  f07c c711 7054 70e4 2243 978b 0800 4500  .|..pTp."C....E.
	0x0010:  1060 6d7e 4000 3b06 a9ef 9762 194b c0fc  .`m~@.;....b.K..
	0x0020:  a680 01bb 5a10 e0b9 554b f5d2 5ee5 8010  ....Z...UK..^...
	0x0030:  01a8 b9b5 0000 0101 080a f401 1938 65c3  .............8e.
	0x0040:  fc27                                     .'
2025-07-17 14:00:00.206312 IP 138.142.231.138.80 > 150.95.129.84.63451: Flags [.], seq 3128327897:3128336657, ack 4207967805, win 306, length 8760: HTTP
	0x0000:  f07c c711 7054 70e4 2243 978b 0800 4500  .|..pTp."C....E.
	0x0010:  2260 9097 4000 3c06 0234 8a8e e78a 965f  "`..@.<..4....._
	0x0020:  8154 0050 f7db ba76 7ed9 fad0 7e3d 5010  .T.P...v~...~=P.
	0x0030:  0132 6ff1 0000                           .2o...
2025-07-17 14:00:00.206315 IP 199.205.130.149.39568 > 150.95.201.222.37810: UDP, length 6
	0x0000:  100e 7ecb 53f0 4088 2fbc 62e0 0800 4500  ..~.S.@./.b...E.
	0x0010:  0022 d431 0000 f411 47f8 c7cd 8295 965f  .".1....G......_
	0x0020:  c9de 9a90 93b2 000e 0000                 ..........
2025-07-17 14:00:00.206318 IP 172.42.177.34.443 > 131.140.28.214.58426: UDP, length 113
	0x0000:  100e 7ecb 53f0 6c62 fed1 c33c 0800 4500  ..~.S.lb...<..E.
	0x0010:  008d 0000 4000 3f11 3db1 ac2a b122 838c  ....@.?.=..*."..
	0x0020:  1cd6 01bb e43a 0079 8272 4d50 da97 3b49  .....:.y.rMP..;I
	0x0030:  7bd1 2d91 1a5b 81d2 fe19 df4c 3aac c49d  {.-..[.....L:...
	0x0040:  7ca1 258c e085 a7c3 7a3a 884d f2dd d7e6  |.%.....z:.M....
	0x0050:  4e26 fe3f 61c4 d302 e9d7 e654 3d08 ed27  N&.?a......T=..'
2025-07-17 14:00:00.206319 IP 140.11.170.2.443 > 131.141.110.208.10404: Flags [.], ack 2133453852, win 23581, length 0
	0x0000:  f07c c711 7054 70e4 2243 978b 0800 4500  .|..pTp."C....E.
	0x0010:  0028 d746 4000 3c06 3f1e 8c0b aa02 838d  .(.F@.<.?.......
	0x0020:  6ed0 01bb 28a4 5610 d084 7f29 ec1c 5010  n...(.V....)..P.
	0x0030:  5c1d 6f11 0000                           \.o...
2025-07-17 14:00:00.206320 IP 202.133.239.166.59433 > 13.127.74.134.443: Flags [P.], seq 758:872, ack 4294967227, win 512, length 114
	0x0000:  04a5 262e ee88 100e 7ecb 53f0 0800 4500  ..&.....~.S...E.
	0x0010:  009a 2eaa 4000 7b06 be82 ca85 efa6 0d7f  ....@.{.........
	0x0020:  4a86 e829 01bb db5e 50be 4fe1 8563 5018  J..)...^P.O..cP.
	0x0030:  0200 14bf 0000                           ......
2025-07-17 14:00:00.206322 IP 103.212.165.10.443 > 202.133.239.173.63867: Flags [.], ack 3490313275, win 41460, length 0
	0x0000:  f07c c711 7054 70e4 2243 978b 0800 4500  .|..pTp."C....E.
	0x0010:  0028 2963 4000 3606 545b 67d4 a50a ca85  .()c@.6.T[g.....
	0x0020:  efad 01bb f97b 7d7b 4c27 d009 f43b 5010  .....{}{L'...;P.
	0x0030:  a1f4 bdae 0000                           ......
2025-07-17 14:00:00.206323 IP6 2001:f338:117f:751d:d23c:c685:41d7:80aa.49552 > 2403:3ae0:2af2:715f:dc03:9839:8fff:c1e.443: Flags [.], seq 278:556, ack 1, win 6600, options [nop,nop,TS val 2542355677 ecr 3431526665], length 278
	0x0000:  14b3 a16a 4ee5 100e 7ecb 53f0 86dd 6004  ...jN...~.S...`.
	0x0010:  0a00 0136 0639 2001 f338 117f 751d d23c  ...6.9...8..u..<
	0x0020:  c685 41d7 80aa 2403 3ae0 2af2 715f dc03  ..A...$.:.*.q_..
	0x0030:  9839 8fff 0c1e c190 01bb 35b7 603e 567d  .9........5.`>V}
	0x0040:  7d99 8010 19c8 b099 0000 0101 080a 9789  }...............
	0x0050:  44dd cc88 f109                           D.....
2025-07-17 14:00:00.206326 IP 204.82.204.49.53246 > 202.138.3.240.8080: Flags [S], seq 631102594, win 65535, length 0
	0x0000:  100e 7ecb 53f0 4088 2fbc 62e0 0800 4500  ..~.S.@./.b...E.
	0x0010:  0028 d431 0000 f606 899f cc52 cc31 ca8a  .(.1.......R.1..
	0x0020:  03f0 cffe 1f90 259d dc82 0000 0000 5002  ......%.......P.
	0x0030:  ffff 5735 0000                           ..W5..
2025-07-17 14:00:00.206326 IP 150.95.48.44.50038 > 52.134.114.35.3480: UDP, length 1052
	0x0000:  6c6c d367 9a69 100e 7ecb 53f0 0800 4500  ll.g.i..~.S...E.
	0x0010:  0438 8b81 0000 7c11 41ff 965f 302c 3486  .8....|.A.._0,4.
	0x0020:  7223 c376 0d98 0424 57ee                 r#.v...$W.
2025-07-17 14:00:00.206328 IP 126.215.249.52.54390 > 157.174.128.158.52657: UDP, length 57
	0x0000:  f07c c711 7054 70e4 2243 978b 0800 4500  .|..pTp."C....E.
	0x0010:  0055 1693 0000 7c11 91ac 7ed7 f934 9dae  .U....|...~..4..
	0x0020:  809e d476 cdb1 0041 1de7                 ...v...A..
2025-07-17 14:00:00.206332 IP 150.95.48.44.50038 > 52.134.114.35.3480: UDP, length 85
	0x0000:  6c6c d367 9a69 100e 7ecb 53f0 0800 4500  ll.g.i..~.S...E.
	0x0010:  0071 8b82 0000 7c11 45c5 965f 302c 3486  .q....|.E.._0,4.
	0x0020:  7223 c376 0d98 005d 71e1                 r#.v...]q.
2025-07-17 14:00:00.206335 IP6 2a09:63b8:79:9617:d000:b73e:47:7bb.44642 > 2001:f989:c22d:de15:1002:68fc:cc03:3e0d.443: Flags [.], ack 2854563270, win 282, options [nop,nop,TS val 4093055248 ecr 525971967], length 0
	0x0000:  100e 7ecb 53f0 4088 2fbc 62e0 86dd 6006  ..~.S.@./.b...`.
	0x0010:  b515 0020 0639 2a09 63b8 0079 9617 d000  .....9*.c..y....
	0x0020:  b73e 0047 07bb 2001 f989 c22d de15 1002  .>.G.......-....
	0x0030:  68fc cc03 3e0d ae62 01bb 66ea 36de aa25  h...>..b..f.6..%
	0x0040:  2dc6 8010 011a 88ff 0000 0101 080a f3f7  -...............
	0x0050:  1110 1f59 b1ff                           ...Y..
2025-07-17 14:00:00.206361 IP 103.212.165.36.443 > 163.61.158.70.59854: Flags [P.], seq 51:120, ack 1, win 84, options [nop,nop,TS val 3165408224 ecr 4134794465], length 69
	0x0000:  100e 7ecb 53f0 04a5 262e ee88 0800 4500  ..~.S...&.....E.
	0x0010:  0079 7277 4000 3806 818b 67d4 a524 a33d  .yrw@.8...g..$.=
	0x0020:  9e46 01bb e9ce 4497 c04c d9f1 ec73 8018  .F....D..L...s..
	0x0030:  0054 9714 0000 0101 080a bcac 4be0 f673  .T..........K..s
	0x0040:  f4e1                                     ..
2025-07-17 14:00:00.206365 IP 202.133.239.173.50316 > 157.116.27.0.443: Flags [.], ack 279795418, win 9626, options [nop,nop,TS val 317252826 ecr 2915455475], length 0
	0x0000:  d404 ffd8 34c3 100e 7ecb 53f0 0800 4500  ....4...~.S...E.
	0x0010:  0034 0000 4000 3b06 cd1c ca85 efad 9d74  .4..@.;........t
	0x0020:  1b00 c48c 01bb 9c52 568c 10ad 56da 8010  .......RV...V...
	0x0030:  259a c650 0000 0101 080a 12e8 e4da adc6  %..P............
	0x0040:  51f3                                     Q.
2025-07-17 14:00:00.206366 IP 151.98.103.209.443 > 202.133.239.167.52788: Flags [.], seq 2914236398:2914248728, ack 1092292512, win 301, options [nop,nop,TS val 474375798 ecr 4126933046], length 12330
	0x0000:  f07c c711 7054 70e4 2243 978b 0800 4500  .|..pTp."C....E.
	0x0010:  305e a420 4000 3c06 b118 9762 67d1 ca85  0^..@.<....bg...
	0x0020:  efa7 01bb ce34 adb3 b7ee 411b 0fa0 8010  .....4....A.....
	0x0030:  012d 9195 0000 0101 080a 1c46 6676 f5fc  .-.........Ffv..
	0x0040:  0036                                     .6
2025-07-17 14:00:00.206369 IP 150.95.165.31.55460 > 40.129.247.20.443: Flags [.], seq 292:1732, ack 1, win 255, length 1440
	0x0000:  6c6c d367 9a69 100e 7ecb 53f0 0800 4500  ll.g.i..~.S...E.
	0x0010:  05c8 0be5 4000 7906 9536 965f a51f 2881  ....@.y..6._..(.
	0x0020:  f714 d8a4 01bb f6a0 712e da99 38a7 5010  ........q...8.P.
	0x0030:  00ff 6858 0000                           ..hX..
2025-07-17 14:00:00.206372 IP 142.4.219.206.443 > 202.133.239.172.46860: Flags [.], ack 376702036, win 1030, options [nop,nop,TS val 2463166969 ecr 1327432839,nop,nop,sack 1 {4294967258:1}], length 0
	0x0000:  100e 7ecb 53f0 6c62 fed1 c33c 0800 4500  ..~.S.lb...<..E.
	0x0010:  0040 5d4a 0000 7e06 bb68 8e04 dbce ca85  .@]J..~..h......
	0x0020:  efac 01bb b70c 5dd6 a8eb 1674 0454 b010  ......]....t.T..
	0x0030:  0406 306f 0000 0101 080a 92d0 f1f9 4f1f  ..0o..........O.
	0x0040:  0487 0101 050a 1674 042d 1674 0454       .......t.-.t.T
2025-07-17 14:00:00.206374 IP 151.98.103.209.443 > 202.133.239.167.52788: Flags [.], seq 12330:15070, ack 1, win 301, options [nop,nop,TS val 474375798 ecr 4126933046], length 2740
	0x0000:  f07c c711 7054 70e4 2243 978b 0800 4500  .|..pTp."C....E.
	0x0010:  0ae8 a429 4000 3c06 d685 9762 67d1 ca85  ...)@.<....bg...
	0x0020:  efa7 01bb ce34 adb3 e818 411b 0fa0 8010  .....4....A.....
	0x0030:  012d f045 0000 0101 080a 1c46 6676 f5fc  .-.E.......Ffv..
	0x0040:  0036                                     .6
2025-07-17 14:00:00.206375 IP 204.82.204.36.48146 > 150.95.18.38.85: Flags [S], seq 4208575362, win 65535, length 0
	0x0000:  100e 7ecb 53f0 4088 2fbc 62e0 0800 4500  ..~.S.@./.b...E.
	0x0010:  0028 d431 0000 f606 afa1 cc52 cc24 965f  .(.1.......R.$._
	0x0020:  1226 bc12 0055 fad9 c382 0000 0000 5002  .&...U........P.
	0x0030:  ffff f421 0000                           ...!..
2025-07-17 14:00:00.206376 IP 150.95.165.31.55460 > 40.129.247.20.443: Flags [.], seq 1732:4612, ack 1, win 255, length 2880
	0x0000:  6c6c d367 9a69 100e 7ecb 53f0 0800 4500  ll.g.i..~.S...E.
	0x0010:  0b68 0be6 4000 7906 8f95 965f a51f 2881  .h..@.y...._..(.
	0x0020:  f714 d8a4 01bb f6a0 76ce da99 38a7 5010  ........v...8.P.
	0x0030:  00ff f52e 0000                           ......
2025-07-17 14:00:00.206381 IP6 2001:f338:117f:751d:d23c:c685:41d7:80aa.49552 > 2403:3ae0:2af2:715f:dc03:9839:8fff:c1e.443: Flags [P.], seq 556:834, ack 1, win 6600, options [nop,nop,TS val 2542355677 ecr 3431526665], length 278
	0x0000:  14b3 a16a 4ee5 100e 7ecb 53f0 86dd 6004  ...jN...~.S...`.
	0x0010:  0a00 0136 0639 2001 f338 117f 751d d23c  ...6.9...8..u..<
	0x0020:  c685 41d7 80aa 2403 3ae0 2af2 715f dc03  ..A...$.:.*.q_..
	0x0030:  9839 8fff 0c1e c190 01bb 35b7 6154 567d  .9........5.aTV}
	0x0040:  7d99 8018 19c8 20ef 0000 0101 080a 9789  }...............
	0x0050:  44dd cc88 f109                           D.....
2025-07-17 14:00:00.206391 IP 203.50.232.44 > 54.141.196.147: ICMP echo request, id 42466, seq 4830, length 12
	0x0000:  04a5 262e ee88 100e 7ecb 53f0 0800 4500  ..&.....~.S...E.
	0x0010:  0020 f6d7 4000 3f01 9685 cb32 e82c 368d  ....@.?....2.,6.
	0x0020:  c493 0800 9675 a5e2 12de                 .....u....
2025-07-17 14:00:00.206399 IP 209.82.105.42.443 > 202.133.239.167.49271: Flags [.], seq 3168629869:3168635349, ack 3139689341, win 1016, options [nop,nop,TS val 2133102222 ecr 2176046974], length 5480
	0x0000:  100e 7ecb 53f0 6c62 fed1 c33c 0800 4500  ..~.S.lb...<..E.
	0x0010:  159c b127 0000 7e06 818a d152 692a ca85  ...'..~....Ri*..
	0x0020:  efa7 01bb c077 bcdd 746d bb23 db7d 8010  .....w..tm.#.}..
	0x0030:  03f8 f418 0000 0101 080a 7f24 8e8e 81b3  ...........$....
	0x0040:  d77e                                     .~
2025-07-17 14:00:00.206404 IP 34.102.195.43.443 > 150.95.41.122.54819: UDP, length 37
	0x0000:  100e 7ecb 53f0 6c62 fed1 c33c 0800 4500  ..~.S.lb...<..E.
	0x0010:  0041 0000 4000 3f11 9641 2266 c32b 965f  .A..@.?..A"f.+._
	0x0020:  297a 01bb d623 002d f53a 45c7 cf35 396f  )z...#.-.:E..59o
	0x0030:  2281 4161 40f9 3a1a f983 48e4 12ff d22e  ".Aa@.:...H.....
	0x0040:  2435 049e e1d8 2633 b5f9 4ad5 fe68 08    $5....&3..J..h.
2025-07-17 14:00:00.206406 IP 203.50.246.16.36779 > 137.222.6.219.873: Flags [.], ack 4021647369, win 64436, options [nop,nop,TS val 2679119525 ecr 3278514452,nop,nop,sack 1 {1449:72401}], length 0
	0x0000:  4088 2fbc 62e0 100e 7ecb 53f0 0800 4500  @./.b...~.S...E.
	0x0010:  0040 f38f 4000 3e06 f72b cb32 f610 89de  .@..@.>..+.2....
	0x0020:  06db 8fab 0369 8465 8aab efb5 7809 b010  .....i.e....x...
	0x0030:  fbb4 4e43 0000 0101 080a 9fb0 1ea5 c36a  ..NC...........j
	0x0040:  2914 0101 050a efb5 7db1 efb6 92d9       ).......}.....
2025-07-17 14:00:00.206408 IP 203.50.246.16.36779 > 137.222.6.219.873: Flags [.], ack 1, win 64436, options [nop,nop,TS val 2679119525 ecr 3278514452,nop,nop,sack 1 {1449:73849}], length 0
	0x0000:  4088 2fbc 62e0 100e 7ecb 53f0 0800 4500  @./.b...~.S...E.
	0x0010:  0040 f390 4000 3e06 f72a cb32 f610 89de  .@..@.>..*.2....
	0x0020:  06db 8fab 0369 8465 8aab efb5 7809 b010  .....i.e....x...
	0x0030:  fbb4 489b 0000 0101 080a 9fb0 1ea5 c36a  ..H............j
	0x0040:  2914 0101 050a efb5 7db1 efb6 9881       ).......}.....
2025-07-17 14:00:00.206412 IP 203.50.248.175.53086 > 13.156.113.111.443: Flags [.], ack 1, win 8191, options [nop,nop,sack 4 {568751:605001}{487501:537501}{541251:563751}{8751:252501}], length 0
	0x0000:  04a5 262e ee88 100e 7ecb 53f0 0800 4500  ..&.....~.S...E.
	0x0010:  004c 7b03 4000 7b06 41bb cb32 f8af 0d9c  .L{.@.{.A..2....
	0x0020:  716f cf5e 01bb ad0d 26d7 d1d7 f1f7 e010  qo.^....&.......
	0x0030:  1fff c955 0000 0101 0522 d1e0 9fa5 d1e1  ...U....."......
	0x0040:  2d3f d1df 6243 d1e0 2593 d1e0 3439 d1e0  -?..bC..%...49..
	0x0050:  8c1d d1d8 1425 d1db cc4b                 .....%...K
2025-07-17 14:00:00.206413 IP 163.61.207.210.57852 > 170.134.191.74.8801: UDP, length 1174
	0x0000:  7c25 8655 aae2 100e 7ecb 53f0 0800 4500  |%.U....~.S...E.
	0x0010:  04b2 6f6a 0000 7911 f0ef a33d cfd2 aa86  ..oj..y....=....
	0x0020:  bf4a e1fc 2261 049e fb40                 .J.."a...@
2025-07-17 14:00:00.206419 IP 163.61.207.210.57852 > 170.134.191.74.8801: UDP, length 502
	0x0000:  7c25 8655 aae2 100e 7ecb 53f0 0800 4500  |%.U....~.S...E.
	0x0010:  0212 6f6b 0000 7911 f38e a33d cfd2 aa86  ..ok..y....=....
	0x0020:  bf4a e1fc 2261 01fe 1856                 .J.."a...V
2025-07-17 14:00:00.206424 IP 150.95.48.44.50038 > 52.134.114.35.3480: UDP, length 835
	0x0000:  6c6c d367 9a69 100e 7ecb 53f0 0800 4500  ll.g.i..~.S...E.
	0x0010:  035f 8b83 0000 7c11 42d6 965f 302c 3486  ._....|.B.._0,4.
	0x0020:  7223 c376 0d98 034b 2e62                 r#.v...K.b
2025-07-17 14:00:00.206425 IP 203.50.232.44 > 89.213.251.182: ICMP echo request, id 42466, seq 1694, length 12
	0x0000:  04a5 262e ee88 100e 7ecb 53f0 0800 4500  ..&.....~.S...E.
	0x0010:  0020 00a7 4000 3f01 324b cb32 e82c 59d5  ....@.?.2K.2.,Y.
	0x0020:  fbb6 0800 a1b5 a5e2 069e                 ..........
2025-07-17 14:00:00.206427 IP 150.95.165.31.55460 > 40.129.247.20.443: Flags [.], seq 4612:6052, ack 1, win 255, length 1440
	0x0000:  6c6c d367 9a69 100e 7ecb 53f0 0800 4500  ll.g.i..~.S...E.
	0x0010:  05c8 0be8 4000 7906 9533 965f a51f 2881  ....@.y..3._..(.
	0x0020:  f714 d8a4 01bb f6a0 820e da99 38a7 5010  ............8.P.
	0x0030:  00ff 1759 0000                           ...Y..
2025-07-17 14:00:00.206428 IP 150.95.48.44.50038 > 52.134.114.35.3480: UDP, length 835
	0x0000:  6c6c d367 9a69 100e 7ecb 53f0 0800 4500  ll.g.i..~.S...E.
	0x0010:  035f 8b84 0000 7c11 42d5 965f 302c 3486  ._....|.B.._0,4.
	0x0020:  7223 c376 0d98 034b 1edb                 r#.v...K..
2025-07-17 14:00:00.206430 IP 101.110.42.55.63669 > 157.174.255.146.58865: UDP, length 24
	0x0000:  f07c c711 7054 70e4 2243 978b 0800 4540  .|..pTp."C....E@
	0x0010:  0034 c350 0000 3a11 9042 656e 2a37 9dae  .4.P..:..Ben*7..
	0x0020:  ff92 f8b5 e5f1 0020 aa90                 ..........
2025-07-17 14:00:00.206431 IP 101.102.160.211.443 > 133.20.103.139.31477: Flags [P.], seq 1150:1461, ack 1, win 65535, length 311
	0x0000:  f07c c711 7054 70e4 2243 978b 0800 4500  .|..pTp."C....E.
	0x0010:  015f 0cc4 4000 fb06 7efb 6566 a0d3 8514  ._..@...~.ef....
	0x0020:  678b 01bb 7af5 b2ef 3aab e687 2797 5018  g...z...:...'.P.
	0x0030:  ffff 8699 0000                           ......
2025-07-17 14:00:00.206432 IP 150.95.165.31.55460 > 40.129.247.20.443: Flags [.], seq 6052:7118, ack 1, win 255, length 1066
	0x0000:  6c6c d367 9a69 100e 7ecb 53f0 0800 4500  ll.g.i..~.S...E.
	0x0010:  0452 0be9 4000 7906 96a8 965f a51f 2881  .R..@.y...._..(.
	0x0020:  f714 d8a4 01bb f6a0 87ae da99 38a7 5010  ............8.P.
	0x0030:  00ff 4282 0000                           ..B...
2025-07-17 14:00:00.206433 IP 150.95.48.44.50038 > 52.134.114.35.3480: UDP, length 833
	0x0000:  6c6c d367 9a69 100e 7ecb 53f0 0800 4500  ll.g.i..~.S...E.
	0x0010:  035d 8b85 0000 7c11 42d6 965f 302c 3486  .]....|.B.._0,4.
	0x0020:  7223 c376 0d98 0349 9581                 r#.v...I..
2025-07-17 14:00:00.206437 IP 133.36.5.5.57793 > 172.187.105.143.443: Flags [.], ack 2132842533, win 38878, options [nop,nop,TS val 3204085037 ecr 4272186801], length 0
	0x0000:  7c25 8655 aae2 100e 7ecb 53f0 0800 4500  |%.U....~.S...E.
	0x0010:  0034 0000 4000 3906 a150 8524 0505 acbb  .4..@.9..P.$....
	0x0020:  698f e1c1 01bb ddf1 4636 7f20 9825 8010  i.......F6...%..
	0x0030:  97de 8701 0000 0101 080a befa 752d fea4  ............u-..
	0x0040:  65b1                                     e.
2025-07-17 14:00:00.206438 IP 192.197.167.210.53 > 133.52.113.125.63326: 34621*-[|domain]
	0x0000:  f07c c711 7054 70e4 2243 978b 0800 4500  .|..pTp."C....E.
	0x0010:  0253 fbfe 0000 3911 2452 c0c5 a7d2 8534  .S....9.$R.....4
	0x0020:  717d 0035 f75e 023f b8a7 873d 8400 0001  q}.5.^.?...=....
	0x0030:  0000 0006 0001                           ......
2025-07-17 14:00:00.206439 IP 131.140.161.87.12290 > 192.170.111.121.443: Flags [.], ack 1419490676, win 1026, length 0
	0x0000:  04a5 262e ee88 100e 7ecb 53f0 0800 4500  ..&.....~.S...E.
	0x0010:  0028 083c 4000 7606 a78c 838c a157 c0aa  .(.<@.v......W..
	0x0020:  6f79 3002 01bb 7b20 bb87 549b b574 5010  oy0...{...T..tP.
	0x0030:  0402 e455 0000                           ...U..
2025-07-17 14:00:00.206442 IP 43.144.249.205.14000 > 150.95.244.252.58054: Flags [P.], seq 756916786:756917298, ack 1024044569, win 2282, length 512
	0x0000:  100e 7ecb 53f0 8403 28dc e057 0800 4500  ..~.S...(..W..E.
	0x0010:  0228 e1cf 4000 3d06 a946 2b90 f9cd 965f  .(..@.=..F+...._
	0x0020:  f4fc 36b0 e2c6 2d1d a232 3d09 ae19 5018  ..6...-..2=...P.
	0x0030:  08ea 1e44 0000                           ...D..
2025-07-17 14:00:00.206449 IP6 2001:f338:117f:751d:d23c:c685:41d7:80aa.49552 > 2403:3ae0:2af2:715f:dc03:9839:8fff:c1e.443: Flags [P.], seq 834:1251, ack 1, win 6600, options [nop,nop,TS val 2542355677 ecr 3431526665], length 417
	0x0000:  14b3 a16a 4ee5 100e 7ecb 53f0 86dd 6004  ...jN...~.S...`.
	0x0010:  0a00 01c1 0639 2001 f338 117f 751d d23c  .....9...8..u..<
	0x0020:  c685 41d7 80aa 2403 3ae0 2af2 715f dc03  ..A...$.:.*.q_..
	0x0030:  9839 8fff 0c1e c190 01bb 35b7 626a 567d  .9........5.bjV}
	0x0040:  7d99 8018 19c8 d4d2 0000 0101 080a 9789  }...............
	0x0050:  44dd cc88 f109                           D.....
2025-07-17 14:00:00.206466 IP 151.98.103.209.443 > 202.133.239.174.57475: Flags [.], seq 1475783709:1475786449, ack 3107637727, win 296, options [nop,nop,TS val 2965774093 ecr 3452079331], length 2740
	0x0000:  f07c c711 7054 70e4 2243 978b 0800 4500  .|..pTp."C....E.
	0x0010:  0ae8 e572 4000 3c06 9535 9762 67d1 ca85  ...r@.<..5.bg...
	0x0020:  efae 01bb e083 57f6 ac1d b93a c9df 8010  ......W....:....
	0x0030:  0128 c294 0000 0101 080a b0c6 1f0d cdc2  .(..............
	0x0040:  8ce3                                     ..
2025-07-17 14:00:00.206467 IP 203.50.232.44 > 218.237.176.101: ICMP echo request, id 42466, seq 4173, length 12
	0x0000:  04a5 262e ee88 100e 7ecb 53f0 0800 4500  ..&.....~.S...E.
	0x0010:  0020 3348 4000 3f01 c9e2 cb32 e82c daed  ..3H@.?....2.,..
	0x0020:  b065 0800 9706 a5e2 104d                 .e.......M
2025-07-17 14:00:00.206469 IP 17.135.84.196.443 > 203.50.254.105.55419: UDP, length 1231
	0x0000:  f07c c711 7054 70e4 2243 978b 0800 4500  .|..pTp."C....E.
	0x0010:  04eb 0000 4000 3211 141b 1187 54c4 cb32  ....@.2.....T..2
	0x0020:  fe69 01bb d87b 04d7 a667 542d 9561 6f27  .i...{...gT-.ao'
	0x0030:  f1c0 22f0 5ae2 5b37 c7e6 ecbf 82fe 8788  ..".Z.[7........
	0x0040:  af91 0b56 c1d1 5bd0 4afa fbbd 6cd3 9c90  ...V..[.J...l...
	0x0050:  fe08 5ab1 a7c2 d820 1a47 e6b9 315b 45b1  ..Z......G..1[E.
2025-07-17 14:00:00.206471 IP 17.135.84.196.443 > 203.50.254.105.55419: UDP, length 1231
	0x0000:  f07c c711 7054 70e4 2243 978b 0800 4500  .|..pTp."C....E.
	0x0010:  04eb 0001 4000 3211 141a 1187 54c4 cb32  ....@.2.....T..2
	0x0020:  fe69 01bb d87b 04d7 f1dd 4e2d 9561 6f27  .i...{....N-.ao'
	0x0030:  f1c0 2294 97b0 d056 3e5a 114a d0a3 0ccf  .."....V>Z.J....
	0x0040:  339e 0ced 1419 b60a dff0 259c a4b6 4cd2  3.........%...L.
	0x0050:  0a99 2634 ecc6 0536 46e8 b335 af73 9a9c  ..&4...6F..5.s..
2025-07-17 14:00:00.206484 IP 133.36.5.5.57793 > 172.187.105.143.443: Flags [.], ack 53235, win 38878, options [nop,nop,TS val 3204085042 ecr 4272186808], length 0
	0x0000:  7c25 8655 aae2 100e 7ecb 53f0 0800 4500  |%.U....~.S...E.
	0x0010:  0034 0000 4000 3906 a150 8524 0505 acbb  .4..@.9..P.$....
	0x0020:  698f e1c1 01bb ddf1 4636 7f21 6817 8010  i.......F6.!h...
	0x0030:  97de b702 0000 0101 080a befa 7532 fea4  ............u2..
	0x0040:  65b8                                     e.
2025-07-17 14:00:00.206484 IP 202.133.239.173.50316 > 157.116.27.0.443: Flags [.], ack 5481, win 9626, options [nop,nop,TS val 317252827 ecr 2915455476], length 0
	0x0000:  d404 ffd8 34c3 100e 7ecb 53f0 0800 4500  ....4...~.S...E.
	0x0010:  0034 0000 4000 3b06 cd1c ca85 efad 9d74  .4..@.;........t
	0x0020:  1b00 c48c 01bb 9c52 568c 10ad 6c42 8010  .......RV...lB..
	0x0030:  259a b0e6 0000 0101 080a 12e8 e4db adc6  %...............
	0x0040:  51f4                                     Q.
2025-07-17 14:00:00.206487 IP 150.95.48.44.50038 > 52.134.114.35.3480: UDP, length 863
	0x0000:  6c6c d367 9a69 100e 7ecb 53f0 0800 4500  ll.g.i..~.S...E.
	0x0010:  037b 8b86 0000 7c11 42b7 965f 302c 3486  .{....|.B.._0,4.
	0x0020:  7223 c376 0d98 0367 6713                 r#.v...gg.
2025-07-17 14:00:00.206488 IP 203.50.246.16.36779 > 137.222.6.219.873: Flags [.], ack 1, win 64436, options [nop,nop,TS val 2679119525 ecr 3278514452,nop,nop,sack 1 {1449:75297}], length 0
	0x0000:  4088 2fbc 62e0 100e 7ecb 53f0 0800 4500  @./.b...~.S...E.
	0x0010:  0040 f391 4000 3e06 f729 cb32 f610 89de  .@..@.>..).2....
	0x0020:  06db 8fab 0369 8465 8aab efb5 7809 b010  .....i.e....x...
	0x0030:  fbb4 42f3 0000 0101 080a 9fb0 1ea5 c36a  ..B............j
	0x0040:  2914 0101 050a efb5 7db1 efb6 9e29       ).......}....)
2025-07-17 14:00:00.206490 IP 202.133.239.172.43870 > 157.116.27.53.443: Flags [P.], seq 2517688770:2517688823, ack 3239768944, win 67, options [nop,nop,TS val 1754845281 ecr 2410339540], length 53
	0x0000:  d404 ffd8 34c3 100e 7ecb 53f0 0800 4500  ....4...~.S...E.
	0x0010:  0069 6625 4000 3b06 668e ca85 efac 9d74  .if%@.;.f......t
	0x0020:  1b35 ab5e 01bb 9610 e1c2 c11a f370 8018  .5.^.........p..
	0x0030:  0043 c612 0000 0101 080a 6898 d061 8faa  .C........h..a..
	0x0040:  dcd4                                     ..
2025-07-17 14:00:00.206491 IP 203.50.246.16.36779 > 137.222.6.219.873: Flags [.], ack 1, win 64436, options [nop,nop,TS val 2679119525 ecr 3278514452,nop,nop,sack 1 {1449:76745}], length 0
	0x0000:  4088 2fbc 62e0 100e 7ecb 53f0 0800 4500  @./.b...~.S...E.
	0x0010:  0040 f392 4000 3e06 f728 cb32 f610 89de  .@..@.>..(.2....
	0x0020:  06db 8fab 0369 8465 8aab efb5 7809 b010  .....i.e....x...
	0x0030:  fbb4 3d4b 0000 0101 080a 9fb0 1ea5 c36a  ..=K...........j
	0x0040:  2914 0101 050a efb5 7db1 efb6 a3d1       ).......}.....
2025-07-17 14:00:00.206492 IP 202.133.239.174.62633 > 3.227.163.152.443: Flags [.], ack 31652445, win 2048, length 0
	0x0000:  04a5 262e ee88 100e 7ecb 53f0 0800 4500  ..&.....~.S...E.
	0x0010:  0028 f1d8 4000 7b06 ac47 ca85 efae 03e3  .(..@.{..G......
	0x0020:  a398 f4a9 01bb ad7d 0bcb 01e2 fa5d 5010  .......}.....]P.
	0x0030:  0800 9a37 0000                           ...7..
2025-07-17 14:00:00.206502 IP 202.133.239.191.64889 > 52.144.111.50.443: Flags [P.], seq 855089961:855090666, ack 3608344659, win 1020, length 705
	0x0000:  6c6c d367 9a69 100e 7ecb 53f0 0800 4500  ll.g.i..~.S...E.
	0x0010:  02e9 9b65 4000 7b06 03a2 ca85 efbf 3490  ...e@.{.......4.
	0x0020:  6f32 fd79 01bb 32f7 a329 d712 f853 5018  o2.y..2..)...SP.
	0x0030:  03fc ce89 0000                           ......
2025-07-17 14:00:00.206503 IP 202.133.239.172.57496 > 157.116.27.0.443: Flags [.], ack 949669501, win 64, options [nop,nop,TS val 796481696 ecr 235032467], length 0
	0x0000:  d404 ffd8 34c3 100e 7ecb 53f0 0800 4500  ....4...~.S...E.
	0x0010:  0034 b9c4 4000 3b06 1359 ca85 efac 9d74  .4..@.;..Y.....t
	0x0020:  1b00 e098 01bb eee7 414f 389a ce7d 8010  ........AO8..}..
	0x0030:  0040 0485 0000 0101 080a 2f79 58a0 0e02  .@......../yX...
	0x0040:  4f93                                     O.
2025-07-17 14:00:00.206506 IP6 2404:77e1:b074:712d:3c31:2808:7c03:f807.443 > 2001:f989:c134:bed5:bb6c:1d23:4948:b248.49331: Flags [.], seq 520783385:520793049, ack 4287513448, win 983, options [nop,nop,TS val 2337054609 ecr 457861378], length 9664
	0x0000:  100e 7ecb 53f0 6c62 fed1 c33c 86dd 600a  ..~.S.lb...<..`.
	0x0010:  9f5c 25e0 067e 2404 77e1 b074 712d 3c31  .\%..~$.w..tq-<1
	0x0020:  2808 7c03 f807 2001 f989 c134 bed5 bb6c  (.|........4...l
	0x0030:  1d23 4948 b248 01bb c0b3 1f0a 8619 ff8e  .#IH.H..........
	0x0040:  4368 8010 03d7 d5fd 0000 0101 080a 8b4c  Ch.............L
	0x0050:  9f91 1b4a 6902                           ...Ji.
2025-07-17 14:00:00.206507 IP 157.116.27.0.443 > 202.133.239.173.50316: Flags [.], seq 70137:79727, ack 0, win 564, options [nop,nop,TS val 2915455482 ecr 317252823], length 9590
	0x0000:  100e 7ecb 53f0 d404 ffd8 34c3 0800 4500  ..~.S.....4...E.
	0x0010:  25aa c8d9 4000 3c06 ddcc 9d74 1b00 ca85  %...@.<....t....
	0x0020:  efad 01bb c48c 10ae 68d2 9c52 568c 8010  ........h..RV...
	0x0030:  0234 b13b 0000 0101 080a adc6 51fa 12e8  .4.;........Q...
	0x0040:  e4d7                                     ..
2025-07-17 14:00:00.206511 IP 17.135.84.196.443 > 203.50.254.105.55419: UDP, length 1231
	0x0000:  f07c c711 7054 70e4 2243 978b 0800 4500  .|..pTp."C....E.
	0x0010:  04eb 0000 4000 3211 141b 1187 54c4 cb32  ....@.2.....T..2
	0x0020:  fe69 01bb d87b 04d7 c86f 402d 9561 6f27  .i...{...o@-.ao'
	0x0030:  f1c0 2296 5c25 ec17 f1c7 e3f6 8141 eff4  ..".\%.......A..
	0x0040:  fbb3 3626 3769 c92c dc43 2611 8a18 f04b  ..6&7i.,.C&....K
	0x0050:  a1a8 23b0 697a 421d 9a25 6762 3b10 87e4  ..#.izB..%gb;...
2025-07-17 14:00:00.206512 IP6 2404:77e1:b074:712d:3c31:2808:7c03:f807.443 > 2001:f989:c134:bed5:bb6c:1d23:4948:b248.49331: Flags [.], seq 9664:14496, ack 1, win 983, options [nop,nop,TS val 2337054609 ecr 457861378], length 4832
	0x0000:  100e 7ecb 53f0 6c62 fed1 c33c 86dd 600a  ..~.S.lb...<..`.
	0x0010:  9f5c 1300 067e 2404 77e1 b074 712d 3c31  .\...~$.w..tq-<1
	0x0020:  2808 7c03 f807 2001 f989 c134 bed5 bb6c  (.|........4...l
	0x0030:  1d23 4948 b248 01bb c0b3 1f0a abd9 ff8e  .#IH.H..........
	0x0040:  4368 8010 03d7 1eff 0000 0101 080a 8b4c  Ch.............L
	0x0050:  9f91 1b4a 6902                           ...Ji.
2025-07-17 14:00:00.206513 IP 17.135.84.196.443 > 203.50.254.105.55419: UDP, length 1231
	0x0000:  f07c c711 7054 70e4 2243 978b 0800 4500  .|..pTp."C....E.
	0x0010:  04eb 0001 4000 3211 141a 1187 54c4 cb32  ....@.2.....T..2
	0x0020:  fe69 01bb d87b 04d7 ec1e 432d 9561 6f27  .i...{....C-.ao'
	0x0030:  f1c0 22b9 d255 4459 2f7d 3f92 6e74 8ab2  .."..UDY/}?.nt..
	0x0040:  5e00 85af c082 fd46 6752 d571 58cc 81c1  ^......FgR.qX...
	0x0050:  46bf d3cd 2197 afa0 32cd d0f0 123b e3b1  F...!...2....;..
2025-07-17 14:00:00.206514 IP 112.162.243.92.53465 > 150.95.201.133.443: Flags [.], ack 1170268302, win 4106, length 0
	0x0000:  f07c c711 7054 70e4 2243 978b 0800 4500  .|..pTp."C....E.
	0x0010:  0028 248a 4000 7a06 1862 70a2 f35c 965f  .($.@.z..bp..\._
	0x0020:  c985 d0d9 01bb 02e6 5f26 45c0 e08e 5010  ........_&E...P.
	0x0030:  100a 80f6 0000                           ......
2025-07-17 14:00:00.206515 IP 203.50.248.175.53086 > 13.156.113.111.443: Flags [.], ack 1, win 8191, options [nop,nop,sack 4 {568751:611251}{487501:537501}{541251:563751}{8751:252501}], length 0
	0x0000:  04a5 262e ee88 100e 7ecb 53f0 0800 4500  ..&.....~.S...E.
	0x0010:  004c 7b04 4000 7b06 41ba cb32 f8af 0d9c  .L{.@.{.A..2....
	0x0020:  716f cf5e 01bb ad0d 26d7 d1d7 f1f7 e010  qo.^....&.......
	0x0030:  1fff b0eb 0000 0101 0522 d1e0 9fa5 d1e1  ........."......
	0x0040:  45a9 d1df 6243 d1e0 2593 d1e0 3439 d1e0  E...bC..%...49..
	0x0050:  8c1d d1d8 1425 d1db cc4b                 .....%...K
2025-07-17 14:00:00.206516 IP 126.181.180.34.26666 > 157.174.14.77.4500: [|isakmp]
	0x0000:  f07c c711 7054 70e4 2243 978b 0800 4500  .|..pTp."C....E.
	0x0010:  00b0 ebac 0000 3c11 b3bd 7eb5 b422 9dae  ......<...~.."..
	0x0020:  0e4d 682a 1194 009c 0000                 .Mh*......
2025-07-17 14:00:00.206519 IP 202.133.239.165.37986 > 54.230.185.188.443: Flags [.], ack 9591, win 1254, options [nop,nop,TS val 1145482019 ecr 3995688209], length 0
	0x0000:  04a5 262e ee88 100e 7ecb 53f0 0800 4500  ..&.....~.S...E.
	0x0010:  0034 894d 4000 3b06 0ba9 ca85 efa5 36e6  .4.M@.;.......6.
	0x0020:  b9bc 9462 01bb ca28 af97 4fe6 2b0a 8010  ...b...(..O.+...
	0x0030:  04e6 0196 0000 0101 080a 4446 ab23 ee29  ..........DF.#.)
	0x0040:  5d11                                     ].
2025-07-17 14:00:00.206521 IP 150.95.48.44.50038 > 52.134.114.35.3480: UDP, length 863
	0x0000:  6c6c d367 9a69 100e 7ecb 53f0 0800 4500  ll.g.i..~.S...E.
	0x0010:  037b 8b87 0000 7c11 42b6 965f 302c 3486  .{....|.B.._0,4.
	0x0020:  7223 c376 0d98 0367 736d                 r#.v...gsm
2025-07-17 14:00:00.206522 IP 103.203.209.129.16153 > 150.95.251.80.60311: UDP, length 89
	0x0000:  100e 7ecb 53f0 505d ac03 9d71 0800 4504  ..~.S.P]...q..E.
	0x0010:  0075 1255 4000 3b11 6222 67cb d181 965f  .u.U@.;.b"g...._
	0x0020:  fb50 3f19 eb97 0061 09f4                 .P?....a..
2025-07-17 14:00:00.206524 IP 18.164.136.189.443 > 202.133.239.174.57896: Flags [P.], seq 4110:4310, ack 1, win 137, options [nop,nop,TS val 51009076 ecr 4217313027], length 200
	0x0000:  f07c c711 7054 70e4 2243 978b 0800 4500  .|..pTp."C....E.
	0x0010:  00fc f016 0000 fb06 794f 12a4 88bd ca85  ........yO......
	0x0020:  efae 01bb e228 1dac 424d e2e5 aaac 8018  .....(..BM......
	0x0030:  0089 4971 0000 0101 080a 030a 5634 fb5f  ..Iq........V4._
	0x0040:  1703                                     ..
2025-07-17 14:00:00.206525 IP 83.161.101.242.56391 > 202.138.36.58.42595: Flags [S], seq 1822001156, win 1024, length 0
	0x0000:  100e 7ecb 53f0 04a5 262e ee88 0800 4500  ..~.S...&.....E.
	0x0010:  0028 10fd 0000 f306 0e7b 53a1 65f2 ca8a  .(.......{S.e...
	0x0020:  243a dc47 a663 6c99 8804 0000 0000 5002  $:.G.cl.......P.
	0x0030:  0400 8c41 0000                           ...A..
2025-07-17 14:00:00.206526 IP 150.95.48.44.50038 > 52.134.114.35.3480: UDP, length 861
	0x0000:  6c6c d367 9a69 100e 7ecb 53f0 0800 4500  ll.g.i..~.S...E.
	0x0010:  0379 8b88 0000 7c11 42b7 965f 302c 3486  .y....|.B.._0,4.
	0x0020:  7223 c376 0d98 0365 a4e9                 r#.v...e..
2025-07-17 14:00:00.206529 IP6 2001:f98a:a0f2:2ca3:6665:f141:23a4:75c2.57084 > 2602:e825:cff3:8c9f:1c33:90f0:c003:fb8d.443: Flags [P.], seq 660176345:660176446, ack 2025123202, win 2048, options [nop,nop,TS val 2161379372 ecr 3980659548], length 101
	0x0000:  7c25 8655 aae2 100e 7ecb 53f0 86dd 602b  |%.U....~.S...`+
	0x0010:  0000 0085 063a 2001 f98a a0f2 2ca3 6665  .....:......,.fe
	0x0020:  f141 23a4 75c2 2602 e825 cff3 8c9f 1c33  .A#.u.&..%.....3
	0x0030:  90f0 c003 fb8d defc 01bb 2759 7dd9 78b4  ..........'Y}.x.
	0x0040:  ed82 8018 0800 fd1f 0000 0101 080a 80d4  ................
	0x0050:  082c ed44 0b5c                           .,.D.\
2025-07-17 14:00:00.206532 IP 203.50.244.20 > 65.204.43.98: ICMP net 150.95.198.80 unreachable, length 36
	0x0000:  4088 2fbc 62e0 100e 7ecb 53f0 0800 4500  @./.b...~.S...E.
	0x0010:  0038 0000 0000 fd01 914f cb32 f414 41cc  .8.......O.2..A.
	0x0020:  2b62 0300 928a 0000 0000 4500 0028 d431  +b........E..(.1
	0x0030:  0000 f606 26c0 41cc 2b62 965f c650 dab8  ....&.A.+b._.P..
	0x0040:  0823 d105 b693                           .#....
2025-07-17 14:00:00.206533 IP 138.142.231.241.80 > 133.20.247.137.47462: Flags [.], seq 4215127594:4215131974, ack 4156315048, win 306, length 4380: HTTP
	0x0000:  f07c c711 7054 70e4 2243 978b 0800 4500  .|..pTp."C....E.
	0x0010:  1144 9556 4000 3c06 a93f 8a8e e7f1 8514  .D.V@.<..?......
	0x0020:  f789 0050 b966 fb3d be2a f7bc 55a8 5010  ...P.f.=.*..U.P.
	0x0030:  0132 e1d4 0000                           .2....
2025-07-17 14:00:00.206535 IP 60.78.187.226.55779 > 133.52.56.114.443: UDP, length 222
	0x0000:  100e 7ecb 53f0 6c6c d367 9a69 0800 4500  ..~.S.ll.g.i..E.
	0x0010:  00fa 9269 0000 7b11 f6b2 3c4e bbe2 8534  ...i..{...<N...4
	0x0020:  3872 d9e3 01bb 00e6 186d 17fe fd00 0100  8r.......m......
	0x0030:  0000 0023 1300 d10c 46ab                 ...#....F.
2025-07-17 14:00:00.206536 IP 203.50.246.16.36779 > 137.222.6.219.873: Flags [.], ack 1, win 64436, options [nop,nop,TS val 2679119525 ecr 3278514452,nop,nop,sack 1 {1449:78193}], length 0
	0x0000:  4088 2fbc 62e0 100e 7ecb 53f0 0800 4500  @./.b...~.S...E.
	0x0010:  0040 f393 4000 3e06 f727 cb32 f610 89de  .@..@.>..'.2....
	0x0020:  06db 8fab 0369 8465 8aab efb5 7809 b010  .....i.e....x...
	0x0030:  fbb4 37a3 0000 0101 080a 9fb0 1ea5 c36a  ..7............j
	0x0040:  2914 0101 050a efb5 7db1 efb6 a979       ).......}....y
2025-07-17 14:00:00.206537 IP6 2001:f98a:a0f2:2c9a:1bf5:e79b:c3ad:1142.52716 > 2600:e8cb:cd0c:18e:fff2:2737:fc0:8362.443: Flags [P.], seq 1041380067:1041381169, ack 2439743838, win 2048, options [nop,nop,TS val 2902525490 ecr 2371499788], length 1102
	0x0000:  9819 2cf3 fddc 100e 7ecb 53f0 86dd 602f  ..,.....~.S...`/
	0x0010:  8f6d 046e 063a 2001 f98a a0f2 2c9a 1bf5  .m.n.:......,...
	0x0020:  e79b c3ad 1142 2600 e8cb cd0c 018e fff2  .....B&.........
	0x0030:  2737 0fc0 8362 cdec 01bb 3e12 32e3 916b  '7...b....>.2..k
	0x0040:  895e 8018 0800 503e 0000 0101 080a ad01  .^....P>........
	0x0050:  0632 8d5a 370c                           .2.Z7.
2025-07-17 14:00:00.206539 IP6 2001:f338:117f:9ff2:e23c:a99f:e026:295a.53867 > 2001:e3e6:20:801f:1c0d:6033:8c3c:3c2.53: 36878 [1au][|domain]
	0x0000:  04a5 262e ee88 100e 7ecb 53f0 86dd 600d  ..&.....~.S...`.
	0x0010:  b614 004e 113d 2001 f338 117f 9ff2 e23c  ...N.=...8.....<
	0x0020:  a99f e026 295a 2001 e3e6 0020 801f 1c0d  ...&)Z..........
	0x0030:  6033 8c3c 03c2 d26b 0035 004e 6dd3 900e  `3.<...k.5.Nm...
	0x0040:  0000 0001 0000 0000 0001                 ..........
2025-07-17 14:00:00.206553 IP 150.95.48.44.50038 > 52.134.114.35.3480: UDP, length 1199
	0x0000:  6c6c d367 9a69 100e 7ecb 53f0 0800 4500  ll.g.i..~.S...E.
	0x0010:  04cb 8b89 0000 7c11 4164 965f 302c 3486  ......|.Ad._0,4.
	0x0020:  7223 c376 0d98 04b7 69d0                 r#.v....i.
2025-07-17 14:00:00.206553 IP 133.36.66.215.49444 > 43.167.26.107.80: Flags [S], seq 752266087, win 65535, options [mss 1250,nop,wscale 6,nop,nop,TS val 1085059526 ecr 0,sackOK,eol], length 0
	0x0000:  981a 35ec 47f1 100e 7ecb 53f0 0800 4500  ..5.G...~.S...E.
	0x0010:  0040 0000 4000 3a06 32ab 8524 42d7 2ba7  .@..@.:.2..$B.+.
	0x0020:  1a6b c124 0050 2cd6 ab67 0000 0000 b002  .k.$.P,..g......
	0x0030:  ffff 9d9b 0000 0204 04e2 0103 0306 0101  ................
	0x0040:  080a 40ac b1c6 0000 0000 0402 0000       ..@...........
2025-07-17 14:00:00.206556 IP 150.95.48.44.50038 > 52.134.114.35.3480: UDP, length 1199
	0x0000:  6c6c d367 9a69 100e 7ecb 53f0 0800 4500  ll.g.i..~.S...E.
	0x0010:  04cb 8b8a 0000 7c11 4163 965f 302c 3486  ......|.Ac._0,4.
	0x0020:  7223 c376 0d98 04b7 0f2f                 r#.v...../
2025-07-17 14:00:00.206561 IP 150.95.48.44.50038 > 52.134.114.35.3480: UDP, length 1199
	0x0000:  6c6c d367 9a69 100e 7ecb 53f0 0800 4500  ll.g.i..~.S...E.
	0x0010:  04cb 8b8b 0000 7c11 4162 965f 302c 3486  ......|.Ab._0,4.
	0x0020:  7223 c376 0d98 04b7 8efb                 r#.v......
2025-07-17 14:00:00.206562 IP 151.98.103.209.443 > 203.50.254.106.4883: Flags [.], seq 1491514503:1491515947, ack 3081538580, win 287, options [nop,nop,TS val 2234856716 ecr 2422051840], length 1444
	0x0000:  100e 7ecb 53f0 04a5 262e ee88 0800 4500  ..~.S...&.....E.
	0x0010:  05d8 8c21 4000 3c06 e42d 9762 67d1 cb32  ...!@.<..-.bg..2
	0x0020:  fe6a 01bb 1313 58e6 b487 b7ac 8c14 8010  .j....X.........
	0x0030:  011f e284 0000 0101 080a 8535 350c 905d  ...........55..]
	0x0040:  9400                                     ..
2025-07-17 14:00:00.206563 IP 150.95.48.44.50038 > 52.134.114.35.3480: UDP, length 1197
	0x0000:  6c6c d367 9a69 100e 7ecb 53f0 0800 4500  ll.g.i..~.S...E.
	0x0010:  04c9 8b8c 0000 7c11 4163 965f 302c 3486  ......|.Ac._0,4.
	0x0020:  7223 c376 0d98 04b5 16a0                 r#.v......
2025-07-17 14:00:00.206564 IP6 2a09:63b8:79:9617:d000:b73e:47:7bb.44642 > 2001:f989:c22d:de15:1002:68fc:cc03:3e0d.443: Flags [.], ack 65416, win 282, options [nop,nop,TS val 4093055249 ecr 525971967], length 0
	0x0000:  100e 7ecb 53f0 4088 2fbc 62e0 86dd 6006  ..~.S.@./.b...`.
	0x0010:  b515 0020 0639 2a09 63b8 0079 9617 d000  .....9*.c..y....
	0x0020:  b73e 0047 07bb 2001 f989 c22d de15 1002  .>.G.......-....
	0x0030:  68fc cc03 3e0d ae62 01bb 66ea 36de aa26  h...>..b..f.6..&
	0x0040:  2d4d 8010 011a 8976 0000 0101 080a f3f7  -M.....v........
	0x0050:  1111 1f59 b1ff                           ...Y..
2025-07-17 14:00:00.206564 IP 17.135.84.196.443 > 203.50.254.105.55419: UDP, length 1231
	0x0000:  f07c c711 7054 70e4 2243 978b 0800 4500  .|..pTp."C....E.
	0x0010:  04eb 0000 4000 3211 141b 1187 54c4 cb32  ....@.2.....T..2
	0x0020:  fe69 01bb d87b 04d7 b716 502d 9561 6f27  .i...{....P-.ao'
	0x0030:  f1c0 2297 3c94 7449 b413 5deb 19ec 9ae6  ..".<.tI..].....
	0x0040:  8933 906c 21eb a3cc 8c1c 5a9f 4307 d751  .3.l!.....Z.C..Q
	0x0050:  acd1 2fa5 5e72 3c98 67dd 54b5 9e62 b429  ../.^r<.g.T..b.)
2025-07-17 14:00:00.206567 IP 17.135.84.196.443 > 203.50.254.105.55419: UDP, length 1231
	0x0000:  f07c c711 7054 70e4 2243 978b 0800 4500  .|..pTp."C....E.
	0x0010:  04eb 0001 4000 3211 141a 1187 54c4 cb32  ....@.2.....T..2
